:020000040000FA
:100000000C9462000C948A000C948A000C948A0070
:100010000C948A000C948A000C948A000C948A0038
:100020000C948A000C948A000C948A000C94A0030F
:100030000C948A000C948A000C948A000C948A0018
:100040000C9456030C948A000C9424030C94FE0226
:100050000C948A000C948A000C948A000C948A00F8
:100060000C948A000C948A000000000024002700F1
:100070002A0000000000250028002B0000000000DE
:1000800023002600290004040404040404040202DA
:100090000202020203030303030301020408102007
:1000A0004080010204081020010204081020000012
:1000B0000008000201000003040700000000000027
:1000C00000005C0411241FBECFEFD8E0DEBFCDBF1F
:1000D00011E0A0E0B1E0ECE2F2E102C005900D9287
:1000E000A234B107D9F722E0A2E4B1E001C01D9229
:1000F000A931B207E1F710E0C2E6D0E004C02197D1
:10010000FE010E941C07C136D107C9F70E94D30423
:100110000C9414090C940000AF92BF92CF92DF921E
:10012000EF92FF920F931F93CF93DF936C017B01AC
:100130008B01040F151FEB015E01AE18BF08C0173D
:10014000D10759F06991D601ED91FC910190F081B0
:10015000E02DC6010995892B79F7C501DF91CF9173
:100160001F910F91FF90EF90DF90CF90BF90AF90D5
:100170000895FC01538D448D252F30E0842F90E0AD
:10018000821B930B541710F0CF9608950197089592
:10019000FC01918D828D981761F0A28DAE0FBF2F5B
:1001A000B11D5D968C91928D9F5F9F73928F90E0B1
:1001B00008958FEF9FEF0895FC01918D828D981720
:1001C00031F0828DE80FF11D858D90E008958FEF5D
:1001D0009FEF0895FC01918D228D892F90E0805C26
:1001E0009F4F821B91098F73992708958DE491E0A9
:1001F0000E94EA0021E0892B09F420E0822F089573
:1002000080E090E0892B29F00E94F60081110C9487
:1002100000000895FC01A48DA80FB92FB11DA35AA9
:10022000BF4F2C91848D90E001968F739927848F16
:10023000A689B7892C93A089B1898C918370806439
:100240008C93938D848D981306C00288F389E02DDA
:1002500080818F7D80830895EF92FF920F931F938B
:10026000CF93DF93EC0181E0888F9B8D8C8D981369
:100270001AC0E889F989808185FF15C09FB7F89475
:10028000EE89FF896083E889F989808183708064C1
:1002900080839FBF81E090E0DF91CF911F910F910C
:1002A000FF90EF900895F62E0B8D10E00F5F1F4F1B
:1002B0000F731127E02E8C8D8E110CC00FB607FC2A
:1002C000FACFE889F989808185FFF5CFCE010E94B8
:1002D0000A01F1CFEB8DEC0FFD2FF11DE35AFF4F1B
:1002E000F0829FB7F8940B8FEA89FB898081806246
:1002F000CFCFCF93DF93EC01888D8823B9F0AA8903
:10030000BB89E889F9898C9185FD03C0808186FDD0
:100310000DC00FB607FCF7CF8C9185FFF2CF80811F
:1003200085FFEDCFCE010E940A01E9CFDF91CF9189
:100330000895833081F028F4813099F08230A9F05B
:1003400008958730A9F08830C9F08430B1F48091E5
:1003500080008F7D03C0809180008F778093800024
:10036000089584B58F7784BD089584B58F7DFBCFC4
:100370008091B0008F778093B00008958091B00095
:100380008F7DF9CFCF93DF93E0EBF0E08491ECE940
:10039000F0E0D491E8E8F0E0C491CC23A1F0811121
:1003A0000E949901EC2FF0E0EE0FFF1FE458FF4F81
:1003B000A591B491EC91ED2381E090E009F480E007
:1003C000DF91CF91089580E090E0FACF1F93CF9313
:1003D000DF93282F30E0F901E255FF4F8491F901B6
:1003E000E656FF4FD491F901EA57FF4FC491CC2351
:1003F000A9F0162F81110E949901EC2FF0E0EE0F69
:10040000FF1FEE58FF4FA591B4918FB7F894EC9170
:10041000111108C0D095DE23DC938FBFDF91CF91FF
:100420001F910895DE2BF8CFCF93DF9390E0FC016E
:10043000E656FF4F24918A579F4FFC0184918823F1
:10044000D1F090E0880F991FFC01E859FF4FA5916A
:10045000B491FC01EE58FF4FC591D49161110EC0CB
:100460009FB7F8948C91E22FE0958E238C9328818E
:10047000E223E8839FBFDF91CF9108958FB7F8946F
:10048000EC91E22BEC938FBFF6CF3FB7F8948091BD
:10049000480190914901A0914A01B0914B0126B5C4
:1004A000A89B05C02F3F19F00196A11DB11D3FBFAC
:1004B000BA2FA92F982F8827BC01CD01620F711D7B
:1004C000811D911D42E0660F771F881F991F4A9575
:1004D000D1F708958F929F92AF92BF92FF920F93A0
:1004E0001F93CF93DF93FC01F0808BE08F1508F40E
:1004F0004AC0828108E512E0081B110987FD1395A7
:10050000000F111F000F111F8181C8E8D0E0C81B28
:10051000D10987FDD395CC0FDD1FCC0FDD1F4E0118
:100520000D2E000CAA08BB089801012E000C440BEC
:10053000550B281939094A095B09DB010E94A006FD
:1005400024EB30E040E050E00E947606820E931EDD
:10055000A41EB51E8C169D062CF0E801801691068F
:100560000CF4E4012297CC0FDD1F2FB7F8948F2DE8
:1005700090E0FC01EE0FFF1FE80FF91FE651FE4F60
:10058000D283C1832FBFDF91CF911F910F91FF9035
:10059000BF90AF909F908F900895892B79F410921F
:1005A000800082E080938100109285001092840088
:1005B000B19A80916F00826080936F00089542E04D
:1005C00050E068E171E08DE491E00C948C00CF93F1
:1005D000DF93FC0101900020E9F73197AF01481B40
:1005E000590BBC018DE491E00E948C00EC010E944B
:1005F000DF028C0F9D1FDF91CF9108951F920F9204
:100600000FB60F9211242F933F934F935F936F93E5
:100610007F938F939F93AF93BF93EF93FF938DE45B
:1006200091E00E940A01FF91EF91BF91AF919F91DC
:100630008F917F916F915F914F913F912F910F908B
:100640000FBE0F901F9018951F920F920FB60F922A
:1006500011242F938F939F93EF93FF93E0915D016C
:10066000F0915E018081E0916301F091640182FD6F
:100670001BC09081809166018F5F8F73209167010D
:10068000821741F0E0916601F0E0E35BFE4F958F49
:1006900080936601FF91EF919F918F912F910F9021
:1006A0000FBE0F901F9018958081F4CF1F920F926C
:1006B0000FB60F9211242F933F938F939F93AF9375
:1006C000BF938091440190914501A0914601B09162
:1006D00047013091430123E0230F2D3758F5019650
:1006E000A11DB11D209343018093440190934501C6
:1006F000A0934601B0934701809148019091490130
:10070000A0914A01B0914B010196A11DB11D8093AA
:10071000480190934901A0934A01B0934B01BF91C6
:10072000AF919F918F913F912F910F900FBE0F909E
:100730001F90189526E8230F0296A11DB11DD2CF58
:100740001F920F920FB60F9211242F933F934F9346
:100750005F936F937F938F939F93AF93BF93CF9349
:10076000DF93EF93FF9380914201C0910E02D0E09E
:1007700087FF24C01092850010928400809142016E
:100780008F5F8093420180914201082E000C990BEB
:100790008C179D0724F4809142018C30C4F1809124
:1007A000840090918500049680349C4908F47AC0B6
:1007B0008091840090918500049676C080914201DA
:1007C000082E000C990B8C179D07C4F6E09142018E
:1007D0008E2FEE0F990BFC01EE0FFF1FE80FF91F94
:1007E000E651FE4F808186FFC9CFE09142018E2FF6
:1007F000EE0F990BFC01EE0FFF1FE80FF91FE651FA
:10080000FE4F808160E08F730E94E601B7CF209198
:10081000840030918500E09142018E2FEE0F990BFC
:10082000FC01EE0FFF1FE80FF91FE651FE4F81811B
:100830009281820F931F9093890080938800E091AA
:1008400042018E2FEE0F990BFC01EE0FFF1FE80FF8
:10085000F91FE651FE4F808186FF11C0E0914201F1
:100860008E2FEE0F990BFC01EE0FFF1FE80FF91F03
:10087000E651FE4F808161E08F730E94E601FF9197
:10088000EF91DF91CF91BF91AF919F918F917F9128
:100890006F915F914F913F912F910F900FBE0F90ED
:1008A0001F90189580E49CE99093890080938800BC
:1008B0008FEF80934201E3CF1092500110924F01CD
:1008C00088EE93E0A0E0B0E0809351019093520154
:1008D000A0935301B09354018AE091E090934E01AC
:1008E00080934D0185EC90E090935A0180935901DB
:1008F00084EC90E090935C0180935B0180EC90E04D
:1009000090935E0180935D0181EC90E09093600193
:1009100080935F0182EC90E090936201809361018B
:1009200086EC90E0909364018093630110926601DD
:1009300010926701109268011092690180910E0275
:100940008C3048F591E0980F90930E02809312023C
:1009500090E0FC01EE0FFF1FE80FF91FE651FE4F7C
:1009600088EB9BE09283818380910E028C30B8F4F7
:1009700091E0980F90930E0280930F0290E0FC019B
:10098000EE0FFF1FE80FF91FE651FE4F88EB9BE0CB
:100990009283818308958FEF80931202E5CF8FEFCA
:1009A00080930F020895789484B5826084BD84B5E5
:1009B000816084BD85B5826085BD85B5816085BD5A
:1009C00080916E00816080936E0010928100809112
:1009D000810082608093810080918100816080939A
:1009E0008100809180008160809380008091B100BF
:1009F00084608093B1008091B00081608093B000EA
:100A000080917A00846080937A0080917A0082607D
:100A100080937A0080917A00816080937A0080913F
:100A20007A00806880937A001092C100E0915D01A5
:100A3000F0915E0182E08083E0915901F0915A01CA
:100A40001082E0915B01F0915C018FEC8083109249
:100A50006501E0916101F091620186E08083E0919F
:100A60005F01F0916001808180618083E0915F018E
:100A7000F0916001808188608083E0915F01F09156
:100A80006001808180688083E0915F01F091600166
:100A900080818F7D8083809112028C3008F043C06A
:100AA00061E088E00E94140280911202282F30E059
:100AB000F901EE0FFF1FE20FF31FE651FE4F908189
:100AC000907C9860908310921302109214022CE094
:100AD000622F0E94100790E0829FB001112430E045
:100AE00020E0AB01420F531FFA01EE0FFF1FE40F8E
:100AF000F51FE651FE4F408146FD07C02F5F3F4F77
:100B00002C30310571F70E94CD02E09112028E2F38
:100B100090E0FC01EE0FFF1FE80FF91FE651FE4FBA
:100B200080818064808380910F028C3008F043C004
:100B300061E087E00E94140280910F02282F30E0CC
:100B4000F901EE0FFF1FE20FF31FE651FE4F9081F8
:100B5000907C9760908310921002109211022CE00A
:100B6000622F0E94100790E0829FB001112430E0B4
:100B700020E0AB01420F531FFA01EE0FFF1FE40FFD
:100B8000F51FE651FE4F408146FD07C02F5F3F4FE6
:100B90002C30310571F70E94CD02E0910F028E2FAB
:100BA00090E0FC01EE0FFF1FE80FF91FE651FE4F2A
:100BB00080818064808360E082E00E941402109251
:100BC0004C0164EB70E082E192E00E946A0270E006
:100BD00060E08FE092E00E946A0200E010E077247B
:100BE00073946DE070E090E080E00E944708EC01B3
:100BF00050E040E0009739F018826BE171E00E940C
:100C00000D094CE050E0BE018DE491E00E948C00A3
:100C1000209719F0CE010E94BE070E94C201892BC5
:100C200009F049C080914C01811145C088E291E0F2
:100C30000E94E70264EB70E082E192E00E946A02A7
:100C400070E060E08FE092E00E946A0270924C01D6
:100C50000E94DF020E9445024B015C0184EFC82E16
:100C6000DD24D394E12CF12C0E9445026819790906
:100C70008A099B09683E734081059105A8F321E02C
:100C8000C21AD108E108F10888EE880E83E0981EA8
:100C9000A11CB11CC114D104E104F10429F7011510
:100CA000110509F49ECF0E94F600882309F499CF1C
:100CB0000E94000096CF0E94C201019749F68091E0
:100CC0004C01882329F285E391E00E94E7026DE25E
:100CD00070E082E192E00E946A0267E870E08FE0D3
:100CE00092E00E946A0210924C01B2CF052E97FB4F
:100CF0001EF400940E948D0657FD07D00E94DF0667
:100D000007FC03D04EF40C948D0650954095309519
:100D100021953F4F4F4F5F4F089590958095709567
:100D200061957F4F8F4F9F4F08950E940107A59FA8
:100D3000900DB49F900DA49F800D911D11240895D6
:100D4000B7FF0C9495060E949506821B930B08959D
:100D50002F923F924F925F926F927F928F929F92CB
:100D6000AF92BF92CF92DF92EF92FF920F931F93B9
:100D7000CF93DF93CDB7DEB7CA1BDB0B0FB6F8946A
:100D8000DEBF0FBECDBF09942A88398848885F84AA
:100D90006E847D848C849B84AA84B984C884DF801B
:100DA000EE80FD800C811B81AA81B981CE0FD11DFF
:100DB0000FB6F894DEBF0FBECDBFED010895A1E2DE
:100DC0001A2EAA1BBB1BFD010DC0AA1FBB1FEE1FC5
:100DD000FF1FA217B307E407F50720F0A21BB30B10
:100DE000E40BF50B661F771F881F991F1A9469F78C
:100DF00060957095809590959B01AC01BD01CF01E8
:100E00000895A29FB001B39FC001A39F700D811DE3
:100E10001124911DB29F700D811D1124911D089503
:100E2000991B79E004C0991F961708F0961B881F3C
:100E30007A95C9F780950895EE0FFF1F0590F491FC
:100E4000E02D09940F931F93CF93DF938230910588
:100E500010F482E090E0E0911702F091180230E087
:100E600020E0B0E0A0E0309799F42115310509F4B5
:100E70004AC0281B390B24303105D8F58A819B8163
:100E80006115710589F1FB0193838283FE0111C015
:100E9000408151810281138148175907E0F04817BA
:100EA000590799F4109761F012960C9312971396C4
:100EB0001C933296CF01DF91CF911F910F9108952E
:100EC0000093170210931802F4CF2115310551F049
:100ED0004217530738F0A901DB019A01BD01DF0178
:100EE000F801C1CFEF01F9CF909318028093170258
:100EF000CDCFFE01E20FF31F819391932250310970
:100F000039832883D7CF2091150230911602232BE5
:100F100041F4209102013091030130931602209395
:100F2000150220910001309101012115310541F494
:100F30002DB73EB74091040150910501241B350B9C
:100F4000E0911502F0911602E217F307A0F42E1BB0
:100F50003F0B2817390778F0AC014E5F5F4F24171D
:100F6000350748F04E0F5F1F50931602409315024D
:100F7000819391939FCFF0E0E0E09CCFCF93DF93FC
:100F80000097E9F0FC01329713821282A0911702B8
:100F9000B0911802ED0130E020E01097A1F420811B
:100FA0003181820F931F209115023091160228176C
:100FB000390709F061C0F0931602E0931502DF9142
:100FC000CF910895EA01CE17DF07E8F54A815B81EA
:100FD0009E0141155105B1F7E901FB83EA8349916F
:100FE0005991C40FD51FEC17FD0761F480819181E1
:100FF0000296840F951FE9019983888382819381EA
:101000009B838A83F0E0E0E012968D919C91139788
:101010000097B9F52D913C911197CD010296820F61
:10102000931F20911502309116022817390739F6BF
:10103000309751F51092180210921702B0931602D1
:10104000A0931502BCCFD383C28340815181840F0A
:10105000951FC817D90761F44E5F5F4F888199814A
:10106000480F591F518340838A819B8193838283D8
:101070002115310509F0B0CFF0931802E093170263
:101080009ECFFD01DC01C0CF13821282D7CFB0E02A
:10109000A0E0EDE4F8E00C94AA068C01009751F46E
:1010A000CB010E9422078C01C801CDB7DEB7E0E179
:1010B0000C94C606FC01E60FF71F9C012250310973
:1010C000E217F30708F49DC0D901CD91DC91119787
:1010D000C617D70798F0C530D10530F3CE01049775
:1010E0008617970708F3C61BD70B2297C193D19396
:1010F0006D937C93CF010E94BE07D6CF5B01AC1AE3
:10110000BD0A4C018C0E9D1EA0911702B0911802D1
:10111000512C412CF12CE12C109731F580911502C6
:10112000909116028815990509F05CC0461657067D
:1011300008F058C08091000190910101009741F49E
:101140008DB79EB74091040150910501841B950B0A
:10115000E817F90708F055C0F0931602E09315025E
:10116000F90171836083A0CF8D919C9111971296A4
:101170006C90129713967C901397A815B90559F5A2
:101180006C0142E0C40ED11CCA14DB0420F1AC0196
:101190004A195B09DA011296159780F06282738210
:1011A00051834083D9016D937C93E114F10471F074
:1011B000D7011396FC93EE93129776CF22968C0F5D
:1011C0009D1FF90191838083F301EFCFF093180203
:1011D000E093170269CF4816590608F42C017D01E7
:1011E000D3019ACFCB010E9422077C01009749F0DE
:1011F000AE01B8010E940409C8010E94BE07870120
:1012000053CF10E000E050CFFB01DC0102C00190A1
:101210000D9241505040D8F70895FB01DC01019038
:101220000D920020E1F70895F894FFCF0000190215
:101230008000000000002C018C00B9007901EA0058
:10124000C800DC000D0A005374617274696E672E69
:101250002E2E2000436C6F73696E673A2077657499
:0E126000004F70656E696E673A206472790007
:107E0000112484B714BE81FFF0D085E080938100F7
:107E100082E08093C00088E18093C10086E0809377
:107E2000C20080E18093C4008EE0C9D0259A86E02C
:107E300020E33CEF91E0309385002093840096BBD3
:107E4000B09BFECF1D9AA8958150A9F7CC24DD24C4
:107E500088248394B5E0AB2EA1E19A2EF3E0BF2EE7
:107E6000A2D0813461F49FD0082FAFD0023811F036
:107E7000013811F484E001C083E08DD089C08234E0
:107E800011F484E103C0853419F485E0A6D080C0E4
:107E9000853579F488D0E82EFF2485D0082F10E0AE
:107EA000102F00270E291F29000F111F8ED06801E7
:107EB0006FC0863521F484E090D080E0DECF843638
:107EC00009F040C070D06FD0082F6DD080E0C81688
:107ED00080E7D80618F4F601B7BEE895C0E0D1E017
:107EE00062D089930C17E1F7F0E0CF16F0E7DF06D8
:107EF00018F0F601B7BEE89568D007B600FCFDCFD4
:107F0000A601A0E0B1E02C9130E011968C91119780
:107F100090E0982F8827822B932B1296FA010C0160
:107F200087BEE89511244E5F5F4FF1E0A038BF0790
:107F300051F7F601A7BEE89507B600FCFDCF97BE46
:107F4000E89526C08437B1F42ED02DD0F82E2BD052
:107F50003CD0F601EF2C8F010F5F1F4F84911BD097
:107F6000EA94F801C1F70894C11CD11CFA94CF0C13
:107F7000D11C0EC0853739F428D08EE10CD085E9AC
:107F80000AD08FE07ACF813511F488E018D01DD067
:107F900080E101D065CF982F8091C00085FFFCCF94
:107FA0009093C60008958091C00087FFFCCF809118
:107FB000C00084FD01C0A8958091C6000895E0E648
:107FC000F0E098E1908380830895EDDF803219F02E
:107FD00088E0F5DFFFCF84E1DECF1F93182FE3DFCA
:107FE0001150E9F7F2DF1F91089580E0E8DFEE27F6
:047FF000FF270994CA
:027FFE00040479
:00000001FF
