:020000040000FA
:100000000C945E000C9486000C9486000C94860080
:100010000C9486000C9486000C9486000C94860048
:100020000C9486000C9486000C9486000C94860038
:100030000C9486000C9486000C9486000C94860028
:100040000C9475050C9486000C9443050C941D05C6
:100050000C9486000C9486000C9486000C94860008
:100060000C9486000C948600000000080002010039
:100070000003040700000000000000000000000072
:10008000250028002B0000000000240027002A0083
:10009000040404040404040402020202020203032E
:1000A0000303030301020408102040800102040836
:1000B0001020010204081020BF05AA0711241FBE4A
:1000C000CFEFD8E0DEBFCDBF11E0A0E0B1E0E4EFBC
:1000D000F4E102C005900D92AE33B107D9F721E0EB
:1000E000AEE3B1E001C01D92A93FB207E1F710E015
:1000F000CDE5D0E004C02197FE010E947508CC3503
:10010000D107C9F70E94F7050C946D0A0C94000002
:1001100090E0FC01EC55FF4F249180579F4FFC016C
:100120008491882399F090E0880F991FFC01EA5789
:10013000FF4FA591B491FC01E458FF4F8591949134
:100140008FB7F894EC91E22BEC938FBF089508954C
:10015000AF92BF92CF92DF92EF92FF920F931F93D5
:10016000CF93DF936C017B018B01040F151FEB0113
:100170005E01AE18BF08C017D10759F06991D601CA
:10018000ED91FC910190F081E02DC6010995892B3C
:1001900079F7C501DF91CF911F910F91FF90EF90FB
:1001A000DF90CF90BF90AF90089542E050E068E1BB
:1001B00071E08CE491E00C94A800CF93DF93FC01F4
:1001C00044815581608171818CE491E00E94A80096
:1001D000EC010E94D5008C0F9D1FDF91CF910895F7
:1001E000FC01538D448D252F30E0842F90E0821B3D
:1001F000930B541710F0CF96089501970895FC01C2
:10020000918D828D981761F0A28DAE0FBF2FB11D19
:100210005D968C91928D9F5F9F73928F90E0089571
:100220008FEF9FEF0895FC01918D828D981731F02B
:10023000828DE80FF11D858D90E008958FEF9FEF7F
:100240000895FC01918D228D892F90E0805C9F4F55
:10025000821B91098F73992708958CE491E00E9485
:10026000210121E0892B09F420E0822F089580E00C
:1002700090E0892B29F00E942D0181110C9400003F
:100280000895FC01A48DA80FB92FB11DA35ABF4F2B
:100290002C91848D90E001968F739927848FA68985
:1002A000B7892C93A089B1898C91837080648C93D9
:1002B000938D848D981306C00288F389E02D808188
:1002C0008F7D80830895EF92FF920F931F93CF93BA
:1002D000DF93EC0181E0888F9B8D8C8D98131AC081
:1002E000E889F989808185FF15C09FB7F894EE8968
:1002F000FF896083E889F9898081837080648083C5
:100300009FBF81E090E0DF91CF911F910F91FF900F
:10031000EF900895F62E0B8D10E00F5F1F4F0F73B7
:100320001127E02E8C8D8E110CC00FB607FCFACF72
:10033000E889F989808185FFF5CFCE010E944101CE
:10034000F1CFEB8DEC0FFD2FF11DE35AFF4FF08243
:100350009FB7F8940B8FEA89FB8980818062CFCFA9
:10036000CF93DF93EC01888D8823B9F0AA89BB89EC
:10037000E889F9898C9185FD03C0808186FD0DC0D7
:100380000FB607FCF7CF8C9185FFF2CF808185FFF8
:10039000EDCFCE010E944101E9CFDF91CF910895C9
:1003A00090E0FC01E859FF4F2491FC01EC55FF4F10
:1003B0003491FC01E057FF4FE491EE23C9F0222372
:1003C00039F0233001F1A8F4213019F1223029F15C
:1003D000F0E0EE0FFF1FE458FF4FA591B4918FB7E7
:1003E000F894EC91611126C030953E233C938FBF69
:1003F00008952730A9F02830C9F0243049F78091BA
:1004000080008F7D03C0809180008F778093800073
:10041000DFCF84B58F7784BDDBCF84B58F7DFBCFF5
:100420008091B0008F778093B000D2CF8091B000E0
:100430008F7DF9CF3E2BDACF3FB7F89480914301FF
:1004400090914401A0914501B091460126B5A89B29
:1004500005C02F3F19F00196A11DB11D3FBFBA2F56
:10046000A92F982F8827BC01CD01620F711D811D16
:10047000911D42E0660F771F881F991F4A95D1F79B
:1004800008958F929F92AF92BF92CF92DF92EF9298
:10049000FF920E941C024B015C018AE0C82ED12C05
:1004A000E12CF12C0E941C02681979098A099B0928
:1004B000683E734081059105A8F321E0C21AD10876
:1004C000E108F10888EE880E83E0981EA11CB11C9B
:1004D000C114D104E104F10429F7FF90EF90DF90FB
:1004E000CF90BF90AF909F908F900895CF92EF9252
:1004F000FF920F931F93CF93DF93C82FD62F142F04
:10050000F22E6C2D82E00E94D0016E2D83E00E94BD
:10051000D001602F84E00E94D0016F2D85E00E9401
:10052000D001612F86E00E94D0016D2F87E00E94EC
:10053000D0016C2F88E0DF91CF911F910F91FF9038
:10054000EF90CF900C94D001CF92DF92EF92FF9278
:100550000F931F93009741F4D12CC12CEE24E39408
:10056000F12C01E010E037C081309105B9F4D12CB5
:10057000C12CF12CE12C10E000E030E020E041E063
:1005800050E061E070E090E080E00E9476021F9110
:100590000F91FF90EF90DF90CF90089582309105FA
:1005A00081F4CC24C394D12CF12CE12C01E010E097
:1005B00021E030E050E040E061E070E081E090E078
:1005C000E4CF8330910561F4CC24C394D12CF12C79
:1005D000E12C10E000E021E030E041E050E0ECCF21
:1005E0008430910539F4CC24C394D12CEE24E394C7
:1005F000F12CC1CF8530910579F4CC24C394D12C52
:10060000EE24E394F12C10E000E021E030E041E042
:1006100050E070E060E0D2CF8630910549F4CC2400
:10062000C394D12CEE24E394F12C01E010E0EDCF43
:100630008730910549F4D12CC12CF12CE12C10E02C
:1006400000E030E020E0C9CF8830910521F4CC24CF
:10065000C394D12C83CFCC24C394D12CEE24E39427
:10066000F12C8930910509F4B4CF8A30910549F411
:10067000CC24C394D12CEE24E394F12C01E010E0BF
:10068000E0CF8B30910519F3D12CC12C8C30910522
:1006900051F08D30910509F45FCF8E30910569F4EA
:1006A000CC24C394D12CEE24E394F12C01E010E08F
:1006B00021E030E050E040E0ACCF0F9709F067CF89
:1006C000CC24C394D12CEE24E394F12C01E010E06F
:1006D00030E020E0EFCF813479F0823481F0833450
:1006E00089F0843491F0853499F08634A1F0082E95
:1006F000000C990BC09708958AE090E008958BE074
:1007000090E008958CE090E008958DE090E00895E9
:100710008EE090E008958FE090E008950F931F938E
:10072000CF93DF938C01EB01FC01808191810097D5
:10073000E1F06881798161157105A9F042815381E9
:100740002C813D814217530770F00E94660A8C810C
:100750009D81F801958384831D821C82DF91CF9156
:100760001F910F9108950E94170988819981F801BE
:10077000918380838A819B81938382838C819D81F5
:1007800095838483198218821B821A82E5CFCF93C6
:10079000DF93EC0188819981009711F00E9417097D
:1007A000198218821D821C821B821A82DF91CF91CE
:1007B0000895FC0180819181009711F00C94170934
:1007C00008950F931F93CF93DF93EC018881998154
:1007D000009759F02A813B812617370730F081E0D6
:1007E000DF91CF911F910F9108958B016F5F7F4F24
:1007F0000E94A009009759F0998388831B830A837C
:100800002C813D81232B59F7FC011082E8CF80E039
:10081000E7CFEF92FF920F931F93CF93DF93611572
:10082000710541F480E0DF91CF911F910F91FF900E
:10083000EF90089541155105B1F07B01EC010C8159
:100840001D81040F151FB8010E94E103882351F395
:10085000288139818C819D81B701820F931F0E946D
:10086000660A1D830C8381E0DECFEF92FF920F9327
:100870001F93CF93DF93CDB7DEB728970FB6F894C9
:10088000DEBF0FBECDBF7C01CB014AE08E010F5F02
:100890001F4FB8010E94B207F80101900020E9F74C
:1008A0003197AF01401B510BB801C7010E940904E9
:1008B000811103C0C7010E94C703C70128960FB664
:1008C000F894DEBF0FBECDBFDF91CF911F910F9186
:1008D000FF90EF900895EF92FF920F931F93CF93A5
:1008E000DF93EC017B018A01BA010E94E1038111CF
:1008F0000BC0CE010E94C703CE01DF91CF911F91A3
:100900000F91FF90EF9008951D830C83B7018881AC
:1009100099810E94660AF0CFFB01DC0111961C92BE
:100920001E9213961C921E92129715961C921E925E
:1009300014978617970749F06081718161157105D9
:1009400021F0448155810C946B040895EF92FF923D
:100950000F931F93CF93DF93CDB7DEB72C970FB6CE
:10096000F894DEBF0FBECDBF7C018B0160317105F5
:1009700068F084E0769567958A95E1F7CE01019657
:100980000E94A604CE0101960E94D9036FEE71E089
:10099000CE0101960E948C040F701127F801E55ECC
:1009A000FE4F80818F83188641E050E0BE01695F71
:1009B0007F4FCE0101960E940904811104C0CE012F
:1009C00001960E94C703BE016F5F7F4FCE0107965D
:1009D0000E948C04BE01695F7F4F8FEE91E00E9400
:1009E0008E03CE0107960E94D903CE0101960E9484
:1009F000D9036FEE71E0C7010E948C04C7012C96E9
:100A00000FB6F894DEBF0FBECDBFDF91CF911F911F
:100A10000F91FF90EF900895FC01118210821382D4
:100A2000128215821482FB0101900020E9F73197B0
:100A3000AF01461B570B0C946B041F920F920FB61D
:100A40000F9211242F933F934F935F936F937F9354
:100A50008F939F93AF93BF93EF93FF938CE491E0B9
:100A60000E944101FF91EF91BF91AF919F918F91B2
:100A70007F916F915F914F913F912F910F900FBE9A
:100A80000F901F9018951F920F920FB60F9211247E
:100A90002F938F939F93EF93FF93E0915C01F091DD
:100AA0005D018081E0916201F091630182FD1BC0D4
:100AB0009081809165018F5F8F732091660182170D
:100AC00041F0E0916501F0E0E45BFE4F958F80938B
:100AD0006501FF91EF919F918F912F910F900FBE24
:100AE0000F901F9018958081F4CF1F920F920FB630
:100AF0000F9211242F933F938F939F93AF93BF93A4
:100B000080913F0190914001A0914101B09142013B
:100B100030913E0123E0230F2D3758F50196A11D9A
:100B2000B11D20933E0180933F0190934001A0931B
:100B30004101B09342018091430190914401A09101
:100B40004501B09146010196A11DB11D809343015D
:100B500090934401A0934501B0934601BF91AF919A
:100B60009F918F913F912F910F900FBE0F901F90EB
:100B7000189526E8230F0296A11DB11DD2CFECE4F3
:100B8000F1E01382128288EE93E0A0E0B0E084836B
:100B90009583A683B7838AE091E09183808385EC77
:100BA00090E09587848784EC90E09787868780EC37
:100BB00090E0918B808B81EC90E0938B828B82EC28
:100BC00090E0958B848B86EC90E0978B868B118ED2
:100BD000128E138E148E6AE171E08FEE91E00E9406
:100BE0000C056AE171E089EE91E00C940C05CF935D
:100BF000DF93CDB7DEB72C970FB6F894DEBF0FBEEC
:100C0000CDBF789484B5826084BD84B5816084BD95
:100C100085B5826085BD85B5816085BD80916E009A
:100C2000816080936E0010928100809181008260CB
:100C30008093810080918100816080938100809108
:100C400080008160809380008091B10084608093F7
:100C5000B1008091B00081608093B00080917A00F3
:100C6000846080937A0080917A00826080937A0019
:100C700080917A00816080937A0080917A00806808
:100C800080937A001092C100E0915C01F0915D01C7
:100C900082E08083E0915801F09159011082E09147
:100CA0005A01F0915B018FEC808310926401E09116
:100CB0006001F091610186E08083E0915E01F09136
:100CC0005F01808180618083E0915E01F0915F012E
:100CD000808188608083E0915E01F0915F01808176
:100CE00080688083E0915E01F0915F0180818F7D5B
:100CF000808312E0812F0E9488001F5F1930D1F796
:100D00008CE00E9488008DE00E94880080E4F82E2C
:100D100088248A9493E0992EA12CB12C20E0C22E35
:100D200020E0D22E50E040E06AE171E08FEE91E0E9
:100D30000E946B04F0927C0080917A008064809322
:100D40007A0080917A0086FDFCCF80917800009136
:100D50007900102F082F10934B0100934A012FEFB9
:100D600030E0D8010E946E08A50194010E94E707B7
:100D70003093490120934801B901CE0101960E94A8
:100D8000A604BE016F5F7F4F89EE91E00E948E0343
:100D9000CE0101960E94D9036CE271E0CE01079664
:100DA0000E940C05BE01695F7F4FCE0101960E9433
:100DB0008C04B801CE0101960E9435040E94DD002A
:100DC000CE0101960E94D903CE0107960E94D90355
:100DD000009148011091490162E371E0CE0107964C
:100DE0000E940C05BE01695F7F4FCE0101960E94F3
:100DF0008C04B801CE0101960E9435040E94DD00EA
:100E0000CE0101960E94D903CE0107960E94D90314
:100E100068E371E0CE0107960E940C05BE01695F90
:100E20007F4FCE0101960E948C044091ED015091BC
:100E3000EE016091E9017091EA01CE0101960E94F4
:100E40000904811104C0CE0101960E94C703CE019E
:100E500001960E94DD00CE0101960E94D903CE01C9
:100E600007960E94D9030E94D5008091ED019091D0
:100E7000EE0161E00197C1F58CE00E94D00160E0D5
:100E80008DE00E94D00190E080E00E94A4020E94C8
:100E9000410261E08DE00E94D00160E08CE00E94A0
:100EA000D0018091ED019091EE01892B31F0E0911C
:100EB000E901F091EA01309721F410924701E7E44B
:100EC000F1E080810E946B030E94A4020E94410213
:100ED000C114D10409F426CF0E942D01882309F4FE
:100EE00021CF0E9400001ECF8CE00E94D00160E064
:100EF0008DE00E94D0018091ED019091EE01892B4F
:100F000031F0E091E901F091EA01309721F410927B
:100F10004701E7E4F1E080810E946B030E94A40294
:100F20000E94410261E08DE00E94D00160E08CE00F
:100F30000E94D0018091ED019091EE01029708F49A
:100F4000BCCFE091E901F091EA01309709F4B5CF07
:100F50003196B7CF89EE91E00E94D9038FEE91E0F0
:100F60000C94D903BB274A3031F4992322F4BDE213
:100F7000909581959F4F0C94BE07BB27FB01552789
:100F8000AA27880F991FAA1FA41710F0A41B8395E6
:100F90005051B9F7A05DAA3308F0A95DA19300975D
:100FA00079F7B111B1931192CB010C94D707DC0101
:100FB000FC01672F71917723E1F7329704C07C9190
:100FC0006D9370836291AE17BF07C8F30895052E25
:100FD00097FB1EF400940E94FE0757FD07D00E9465
:100FE0003D0807FC03D04EF40C94FE075095409545
:100FF000309521953F4F4F4F5F4F089590958095C5
:10100000709561957F4F8F4F9F4F08952F923F921C
:101010004F925F926F927F928F929F92AF92BF9208
:10102000CF92DF92EF92FF920F931F93CF93DF93B4
:10103000CDB7DEB7CA1BDB0B0FB6F894DEBF0FBE11
:10104000CDBF09942A88398848885F846E847D845E
:101050008C849B84AA84B984C884DF80EE80FD8060
:101060000C811B81AA81B981CE0FD11D0FB6F894D6
:10107000DEBF0FBECDBFED010895A1E21A2EAA1B5F
:10108000BB1BFD010DC0AA1FBB1FEE1FFF1FA21738
:10109000B307E407F50720F0A21BB30BE40BF50B35
:1010A000661F771F881F991F1A9469F760957095BE
:1010B000809590959B01AC01BD01CF010895A29F41
:1010C000B001B39FC001A39F700D811D1124911D1C
:1010D000B29F700D811D1124911D08950E945F081B
:1010E000B7FF0895821B930B0895EE0FFF1F059025
:1010F000F491E02D09940F931F93CF93DF938230E7
:10110000910510F482E090E0E091F701F091F80190
:1011100030E020E0B0E0A0E0309799F421153105EF
:1011200009F44AC0281B390B24303105D8F58A81CF
:101130009B816115710589F1FB0193838283FE0117
:1011400011C0408151810281138148175907E0F095
:101150004817590799F4109761F012960C9312975B
:1011600013961C933296CF01DF91CF911F910F916F
:1011700008950093F7011093F801F4CF211531057C
:1011800051F04217530738F0A901DB019A01BD0164
:10119000DF01F801C1CFEF01F9CF9093F8018093FF
:1011A000F701CDCFFE01E20FF31F819391932250FF
:1011B000310939832883D7CF2091F5013091F60189
:1011C000232B41F420910201309103013093F60169
:1011D0002093F50120910001309101012115310585
:1011E00041F42DB73EB74091040150910501241BF5
:1011F000350BE091F501F091F601E217F307A0F449
:101200002E1B3F0B2817390778F0AC014E5F5F4F5C
:101210002417350748F04E0F5F1F5093F601409397
:10122000F501819391939FCFF0E0E0E09CCFCF93C5
:10123000DF930097E9F0FC01329713821282A091AC
:10124000F701B091F801ED0130E020E01097A1F432
:1012500020813181820F931F2091F5013091F60199
:101260002817390709F061C0F093F601E093F50102
:10127000DF91CF910895EA01CE17DF07E8F54A81A3
:101280005B819E0141155105B1F7E901FB83EA83BA
:1012900049915991C40FD51FEC17FD0761F4808166
:1012A00091810296840F951FE90199838883828139
:1012B00093819B838A83F0E0E0E012968D919C916C
:1012C00013970097B9F52D913C911197CD01029696
:1012D000820F931F2091F5013091F60128173907ED
:1012E00039F6309751F51092F8011092F701B0934A
:1012F000F601A093F501BCCFD383C2834081518115
:10130000840F951FC817D90761F44E5F5F4F88811E
:101310009981480F591F518340838A819B81938310
:1013200082832115310509F0B0CFF093F801E093E5
:10133000F7019ECFFD01DC01C0CF13821282D7CF0F
:10134000B0E0A0E0E6EAF9E00C9408088C01009710
:1013500051F4CB010E947B088C01C801CDB7DEB7E8
:10136000E0E10C942408FC01E60FF71F9C012250D9
:101370003109E217F30708F49DC0D901CD91DC9142
:101380001197C617D70798F0C530D10530F3CE01B5
:1013900004978617970708F3C61BD70B2297C193AC
:1013A000D1936D937C93CF010E941709D6CF5B0137
:1013B000AC1ABD0A4C018C0E9D1EA091F701B09194
:1013C000F801512C412CF12CE12C109731F5809132
:1013D000F5019091F6018815990509F05CC0461653
:1013E000570608F058C080910001909101010097C4
:1013F00041F48DB79EB74091040150910501841BC3
:10140000950BE817F90708F055C0F093F601E09343
:10141000F501F90171836083A0CF8D919C911197A3
:1014200012966C90129713967C901397A815B90595
:1014300059F56C0142E0C40ED11CCA14DB0420F142
:10144000AC014A195B09DA011296159780F06282A5
:10145000738251834083D9016D937C93E114F1042D
:1014600071F0D7011396FC93EE93129776CF2296E4
:101470008C0F9D1FF90191838083F301EFCFF093CF
:10148000F801E093F70169CF4816590608F42C01DA
:101490007D01D3019ACFCB010E947B087C0100978C
:1014A00049F0AE01B8010E945D0AC8010E94170907
:1014B000870153CF10E000E050CFFB01DC0102C0F8
:1014C00001900D9241505040D8F70895FB01DC0186
:1014D00001900D920020E1F7089510E0CDE5D0E0F5
:1014E00004C0FE010E9475082196CE35D107C9F7C8
:1014F000F894FFCF0000F9018000000000006301B4
:10150000A800F000B0012101FF0013010D0A003016
:101510003132333435363738394142434445460059
:10152000535F763A20004F5F763A2000435F763A69
:02153000200099
:107E0000112484B714BE81FFF0D085E080938100F7
:107E100082E08093C00088E18093C10086E0809377
:107E2000C20080E18093C4008EE0C9D0259A86E02C
:107E300020E33CEF91E0309385002093840096BBD3
:107E4000B09BFECF1D9AA8958150A9F7CC24DD24C4
:107E500088248394B5E0AB2EA1E19A2EF3E0BF2EE7
:107E6000A2D0813461F49FD0082FAFD0023811F036
:107E7000013811F484E001C083E08DD089C08234E0
:107E800011F484E103C0853419F485E0A6D080C0E4
:107E9000853579F488D0E82EFF2485D0082F10E0AE
:107EA000102F00270E291F29000F111F8ED06801E7
:107EB0006FC0863521F484E090D080E0DECF843638
:107EC00009F040C070D06FD0082F6DD080E0C81688
:107ED00080E7D80618F4F601B7BEE895C0E0D1E017
:107EE00062D089930C17E1F7F0E0CF16F0E7DF06D8
:107EF00018F0F601B7BEE89568D007B600FCFDCFD4
:107F0000A601A0E0B1E02C9130E011968C91119780
:107F100090E0982F8827822B932B1296FA010C0160
:107F200087BEE89511244E5F5F4FF1E0A038BF0790
:107F300051F7F601A7BEE89507B600FCFDCF97BE46
:107F4000E89526C08437B1F42ED02DD0F82E2BD052
:107F50003CD0F601EF2C8F010F5F1F4F84911BD097
:107F6000EA94F801C1F70894C11CD11CFA94CF0C13
:107F7000D11C0EC0853739F428D08EE10CD085E9AC
:107F80000AD08FE07ACF813511F488E018D01DD067
:107F900080E101D065CF982F8091C00085FFFCCF94
:107FA0009093C60008958091C00087FFFCCF809118
:107FB000C00084FD01C0A8958091C6000895E0E648
:107FC000F0E098E1908380830895EDDF803219F02E
:107FD00088E0F5DFFFCF84E1DECF1F93182FE3DFCA
:107FE0001150E9F7F2DF1F91089580E0E8DFEE27F6
:047FF000FF270994CA
:027FFE00040479
:00000001FF
