:100000000C945D000C9485000C9485000C94850084
:100010000C9485000C9485000C9485000C9485004C
:100020000C9485000C9485000C9485000C9485003C
:100030000C9485000C9485000C9485000C9485002C
:100040000C9471030C9485000C943F030C941903D9
:100050000C9485000C9485000C9485000C9485000C
:100060000C9485000C94850000000008000201003B
:100070000003040700000000000000000000000072
:10008000250028002B0000000000240027002A0083
:10009000040404040404040402020202020203032E
:1000A0000303030301020408102040800102040836
:1000B0001020010204081020DC0511241FBECFEF20
:1000C000D8E0DEBFCDBF11E0A0E0B1E0ECE8F1E1A7
:1000D00002C005900D92A832B107D9F721E0A8E23D
:1000E000B1E001C01D92A63DB207E1F710E0CDE5F9
:1000F000D0E004C02197FE010E94CC06CC35D10788
:10010000C9F70E94BB030C94C4080C940000AF9282
:10011000BF92CF92DF92EF92FF920F931F93CF93F4
:10012000DF936C017B018B01040F151FEB015E0156
:10013000AE18BF08C017D10759F06991D601ED91EB
:10014000FC910190F081E02DC6010995892B79F78A
:10015000C501DF91CF911F910F91FF90EF90DF903C
:10016000CF90BF90AF900895FC01538D448D252F03
:1001700030E0842F90E0821B930B541710F0CF9641
:10018000089501970895FC01918D828D981761F073
:10019000A28DAE0FBF2FB11D5D968C91928D9F5F8A
:1001A0009F73928F90E008958FEF9FEF0895FC0169
:1001B000918D828D981731F0828DE80FF11D858D1C
:1001C00090E008958FEF9FEF0895FC01918D228DAF
:1001D000892F90E0805C9F4F821B91098F73992734
:1001E000089581E391E00E94E50021E0892B09F464
:1001F00020E0822F089580E090E0892B29F00E9472
:10020000F10081110C9400000895FC01A48DA80F49
:10021000B92FB11DA35ABF4F2C91848D90E0019648
:100220008F739927848FA689B7892C93A089B18968
:100230008C91837080648C93938D848D981306C009
:100240000288F389E02D80818F7D80830895EF926D
:10025000FF920F931F93CF93DF93EC0181E0888F80
:100260009B8D8C8D98131AC0E889F989808185FF50
:1002700015C09FB7F894EE89FF896083E889F989F2
:1002800080818370806480839FBF81E090E0DF91F4
:10029000CF911F910F91FF90EF900895F62E0B8D47
:1002A00010E00F5F1F4F0F731127E02E8C8D8E1102
:1002B0000CC00FB607FCFACFE889F989808185FF69
:1002C000F5CFCE010E940501F1CFEB8DEC0FFD2F94
:1002D000F11DE35AFF4FF0829FB7F8940B8FEA8924
:1002E000FB8980818062CFCFCF93DF93EC01888D33
:1002F0008823B9F0AA89BB89E889F9898C9185FDA1
:1003000003C0808186FD0DC00FB607FCF7CF8C912E
:1003100085FFF2CF808185FFEDCFCE010E940501E0
:10032000E9CFDF91CF91089590E0FC01E859FF4FAC
:100330002491FC01EC55FF4F3491FC01E057FF4F35
:10034000E491EE23C9F0222339F0233001F1A8F41F
:10035000213019F1223029F1F0E0EE0FFF1FE458AF
:10036000FF4FA591B4918FB7F894EC91611126C01D
:1003700030953E233C938FBF08952730A9F0283055
:10038000C9F0243049F7809180008F7D03C08091AF
:1003900080008F7780938000DFCF84B58F7784BD16
:1003A000DBCF84B58F7DFBCF8091B0008F778093BA
:1003B000B000D2CF8091B0008F7DF9CF3E2BDACF45
:1003C0003FB7F89480912D0190912E01A0912F01BB
:1003D000B091300126B5A89B05C02F3F19F00196BA
:1003E000A11DB11D3FBFBA2FA92F982F8827BC018F
:1003F000CD01620F711D811D911D42E0660F771FB7
:10040000881F991F4A95D1F708958F929F92AF92B6
:10041000BF92CF92DF92EF92FF920E94E0014B01D8
:100420005C0184EFC82EDD24D394E12CF12C0E94D2
:10043000E001681979098A099B09683E73408105C2
:100440009105A8F321E0C21AD108E108F10888EE6D
:10045000880E83E0981EA11CB11CC114D104E104D4
:10046000F10429F7FF90EF90DF90CF90BF90AF900D
:100470009F908F900895CF92EF92FF920F931F93CA
:10048000CF93DF93C82FD62F142FF22E6C2D82E03E
:100490000E9494016E2D83E00E949401602F84E0FD
:1004A0000E9494016F2D85E00E949401612F86E0E7
:1004B0000E9494016D2F87E00E9494016C2F88E0C8
:1004C000DF91CF911F910F91FF90EF90CF900C94FF
:1004D0009401CF93DF93EC0188819981009711F00B
:1004E0000E946E07198218821D821C821B821A824A
:1004F000DF91CF910895FC0180819181009711F0E7
:100500000C946E0708950F931F93CF93DF93EC0124
:1005100088819981009759F02A813B8126173707F6
:1005200030F081E0DF91CF911F910F9108958B0101
:100530006F5F7F4F0E94F707009759F09983888378
:100540001B830A832C813D81232B59F7FC011082E8
:10055000E8CF80E0E7CFCF92DF92EF92FF920F9348
:100560001F93CF93DF93CDB7DEB728970FB6F894DC
:10057000DEBF0FBECDBF7C01CB014AE09E012F5FE5
:100580003F4F6901B9010E940906F6010190002060
:10059000E9F73197EC19FD09D9F0D70114960D91BF
:1005A0001C910E0F1F1FB801C7010E9483028823F0
:1005B00081F0F7012081318184819581B601820F1C
:1005C000931F0E94BD08D70115961C930E93149794
:1005D00081E028960FB6F894DEBF0FBECDBFDF9145
:1005E000CF911F910F91FF90EF90DF90CF900895E2
:1005F000EF92FF920F931F93CF93DF93EC017B0158
:100600008A01BA010E94830281110BC0CE010E94AF
:100610006902CE01DF91CF911F910F91FF90EF9072
:1006200008951D830C83B701888199810E94BD08BC
:10063000F0CF1F920F920FB60F9211242F933F937A
:100640004F935F936F937F938F939F93AF93BF93DA
:10065000EF93FF9381E391E00E940501FF91EF91F9
:10066000BF91AF919F918F917F916F915F914F91CA
:100670003F912F910F900FBE0F901F9018951F92D2
:100680000F920FB60F9211242F938F939F93EF9396
:10069000FF93E0914101F09142018081E091470197
:1006A000F091480182FD1BC0908180914A018F5FCB
:1006B0008F7320914B01821741F0E0914A01F0E0E5
:1006C000EF5CFE4F958F80934A01FF91EF919F91D0
:1006D0008F912F910F900FBE0F901F9018958081D2
:1006E000F4CF1F920F920FB60F9211242F933F93C6
:1006F0008F939F93AF93BF938091290190912A018B
:10070000A0912B01B0912C013091280123E0230FFF
:100710002D3758F50196A11DB11D20932801809316
:10072000290190932A01A0932B01B0932C01809171
:100730002D0190912E01A0912F01B09130010196D1
:10074000A11DB11D80932D0190932E01A0932F0127
:10075000B0933001BF91AF919F918F913F912F91B5
:100760000F900FBE0F901F90189526E8230F02964A
:10077000A11DB11DD2CFCF93DF93CDB7DEB72C979C
:100780000FB6F894DEBF0FBECDBF789484B58260FB
:1007900084BD84B5816084BD85B5826085BD85B525
:1007A000816085BD80916E00816080936E001092A3
:1007B000810080918100826080938100809181001E
:1007C00081608093810080918000816080938000AF
:1007D0008091B10084608093B1008091B00081600D
:1007E0008093B00080917A00846080937A00809139
:1007F0007A00826080937A0080917A008160809391
:100800007A0080917A00806880937A001092C1000B
:10081000E0914101F091420182E08083E0913D014D
:10082000F0913E011082E0913F01F09140018FEC88
:10083000808310924901E0914501F091460186E0E4
:100840008083E0914301F091440180818061808345
:10085000E0914301F0914401808188608083E091C0
:100860004301F0914401808180688083E0914301DD
:10087000F091440180818F7D808322E030E0F90196
:10088000EC55FF4F4491F901E057FF4F84918823C5
:1008900099F090E0880F991FFC01EA57FF4FA5914E
:1008A000B491FC01E458FF4F859194918FB7F8946F
:1008B000EC91E42BEC938FBF2F5F3F4F2930310534
:1008C000F1F640E4B42E44244A9453E0552E612CB2
:1008D000712C60E0862E60E0962EB0927C008091B4
:1008E0007A00806480937A0080917A0086FDFCCF44
:1008F0008091780000917900102F082F1093D1017A
:100900000093D0012FE030E0D8010E94C506A3017A
:1009100092010E943E063093CF012093CE011886AB
:100920001F821A8619861C861B8645E050E068E106
:1009300071E0CE0107960E94F8021A8219821C8289
:100940001B821E821D826F8178856115710531F0D1
:100950004B855C85CE0101960E94F802B801CE015C
:1009600001960E94AB02811104C0CE0101960E9443
:1009700069024D815E8169817A8181E391E00E9403
:100980008700CE0101960E947B02CE0107960E944D
:100990007B020091CE011091CF0118861F821A862A
:1009A00019861C861B8646E050E06EE171E0CE01A0
:1009B00007960E94F8021A8219821C821B821E82EC
:1009C0001D826F8178856115710531F04B855C85DD
:1009D000CE0101960E94F802B801CE0101960E9454
:1009E000AB02811104C0CE0101960E9469024D81C3
:1009F0005E8169817A8181E391E00E948700CE0166
:100A000001960E947B02CE0107960E947B0242E083
:100A100050E065E271E081E391E00E9487000E946E
:100A200005028091CE019091CF01009741F4D12C25
:100A3000C12CEE24E394F12C01E010E03EC08130A3
:100A40009105F1F4D12CC12CF12CE12C10E000E047
:100A500030E020E041E050E061E070E090E080E0D4
:100A60000E943B020E9405028114910409F435CFD3
:100A70000E94F100882309F430CF0E9400002DCF9E
:100A80008230910581F4CC24C394D12CF12CE12C3B
:100A900001E010E021E030E050E040E061E070E093
:100AA00081E090E0DDCF8330910561F4CC24C394E4
:100AB000D12CF12CE12C10E000E021E030E041E00D
:100AC00050E0ECCF8430910539F4CC24C394D12C80
:100AD000EE24E394F12CBACF8530910579F4CC243F
:100AE000C394D12CEE24E394F12C10E000E021E03B
:100AF00030E041E050E070E060E0D2CF8630910518
:100B000049F4CC24C394D12CEE24E394F12C01E0DD
:100B100010E0EDCF8730910549F4D12CC12CF12C98
:100B2000E12C10E000E030E020E0C9CF88309105F2
:100B300021F4CC24C394D12C7CCFCC24C394D12CCD
:100B4000EE24E394F12C8930910509F4B4CFCC2440
:100B5000C394D12CEE24E394F12C01E010E08A3010
:100B6000910509F38B30910521F3D12CC12C8C30E8
:100B7000910551F08D30910509F459CF8E309105D2
:100B800069F4CC24C394D12CEE24E394F12C01E03D
:100B900010E021E030E050E040E0ADCF0F9709F0E9
:100BA00061CFCC24C394D12CEE24E394F12C01E04A
:100BB00010E030E020E0EFCFE1E3F1E013821282B9
:100BC00088EE93E0A0E0B0E084839583A683B783AA
:100BD0008AE091E09183808385EC90E0958784871B
:100BE00084EC90E09787868780EC90E0918B808BF7
:100BF00081EC90E0938B828B82EC90E0958B848BE0
:100C000086EC90E0978B868B118E128E138E148E4D
:100C10000895BB274A3031F4992322F4BDE2909520
:100C200081959F4F0C941506BB27FB015527AA27DA
:100C3000880F991FAA1FA41710F0A41B8395505169
:100C4000B9F7A05DAA3308F0A95DA193009779F7E1
:100C5000B111B1931192CB010C942E06DC01FC0171
:100C6000672F71917723E1F7329704C07C916D93E0
:100C700070836291AE17BF07C8F30895052E97FBE6
:100C80001EF400940E94550657FD07D00E9494065A
:100C900007FC03D04EF40C945506509540953095C2
:100CA00021953F4F4F4F5F4F0895909580957095D8
:100CB00061957F4F8F4F9F4F08952F923F924F9294
:100CC0005F926F927F928F929F92AF92BF92CF92DC
:100CD000DF92EF92FF920F931F93CF93DF93CDB7E5
:100CE000DEB7CA1BDB0B0FB6F894DEBF0FBECDBF5D
:100CF00009942A88398848885F846E847D848C842E
:100D00009B84AA84B984C884DF80EE80FD800C8136
:100D10001B81AA81B981CE0FD11D0FB6F894DEBF19
:100D20000FBECDBFED010895A1E21A2EAA1BBB1B79
:100D3000FD010DC0AA1FBB1FEE1FFF1FA217B307A7
:100D4000E407F50720F0A21BB30BE40BF50B661FBD
:100D5000771F881F991F1A9469F760957095809581
:100D600090959B01AC01BD01CF010895A29FB001F8
:100D7000B39FC001A39F700D811D1124911DB29FCF
:100D8000700D811D1124911D08950E94B606B7FFB4
:100D90000895821B930B0895EE0FFF1F0590F491A9
:100DA000E02D09940F931F93CF93DF938230910529
:100DB00010F482E090E0E091D401F091D50130E0B0
:100DC00020E0B0E0A0E0309799F42115310509F456
:100DD0004AC0281B390B24303105D8F58A819B8104
:100DE0006115710589F1FB0193838283FE0111C0B6
:100DF000408151810281138148175907E0F048175B
:100E0000590799F4109761F012960C931297139664
:100E10001C933296CF01DF91CF911F910F910895CE
:100E20000093D4011093D501F4CF2115310551F071
:100E30004217530738F0A901DB019A01BD01DF0118
:100E4000F801C1CFEF01F9CF9093D5018093D40180
:100E5000CDCFFE01E20FF31F819391932250310910
:100E600039832883D7CF2091D2013091D301232B0E
:100E700041F420910201309103013093D30120937A
:100E8000D20120910001309101012115310541F479
:100E90002DB73EB74091040150910501241B350B3D
:100EA000E091D201F091D301E217F307A0F42E1BD9
:100EB0003F0B2817390778F0AC014E5F5F4F2417BE
:100EC000350748F04E0F5F1F5093D3014093D20176
:100ED000819391939FCFF0E0E0E09CCFCF93DF939D
:100EE0000097E9F0FC01329713821282A091D4019D
:100EF000B091D501ED0130E020E01097A1F4208100
:100F00003181820F931F2091D2013091D301281794
:100F1000390709F061C0F093D301E093D201DF916A
:100F2000CF910895EA01CE17DF07E8F54A815B818A
:100F30009E0141155105B1F7E901FB83EA8349910F
:100F40005991C40FD51FEC17FD0761F48081918181
:100F50000296840F951FE90199838883828193818A
:100F60009B838A83F0E0E0E012968D919C91139729
:100F70000097B9F52D913C911197CD010296820F02
:100F8000931F2091D2013091D3012817390739F6E8
:100F9000309751F51092D5011092D401B093D3013E
:100FA000A093D201BCCFD383C28340815181840FEF
:100FB000951FC817D90761F44E5F5F4F88819981EB
:100FC000480F591F518340838A819B819383828379
:100FD0002115310509F0B0CFF093D501E093D4018C
:100FE0009ECFFD01DC01C0CF13821282D7CFB0E0CB
:100FF000A0E0EDEFF7E00C945F068C01009751F450
:10100000CB010E94D2068C01C801CDB7DEB7E0E16A
:101010000C947B06FC01E60FF71F9C01225031095E
:10102000E217F30708F49DC0D901CD91DC91119727
:10103000C617D70798F0C530D10530F3CE01049715
:101040008617970708F3C61BD70B2297C193D19336
:101050006D937C93CF010E946E07D6CF5B01AC1AD3
:10106000BD0A4C018C0E9D1EA091D401B091D501FA
:10107000512C412CF12CE12C109731F58091D201AB
:101080009091D3018815990509F05CC04616570662
:1010900008F058C08091000190910101009741F43F
:1010A0008DB79EB74091040150910501841B950BAB
:1010B000E817F90708F055C0F093D301E093D20187
:1010C000F90171836083A0CF8D919C911197129645
:1010D0006C90129713967C901397A815B90559F543
:1010E0006C0142E0C40ED11CCA14DB0420F1AC0137
:1010F0004A195B09DA011296159780F062827382B1
:1011000051834083D9016D937C93E114F10471F014
:10111000D7011396FC93EE93129776CF22968C0FFD
:101120009D1FF90191838083F301EFCFF093D501E7
:10113000E093D40169CF4816590608F42C017D01CB
:10114000D3019ACFCB010E94D2067C01009749F0CF
:10115000AE01B8010E94B408C8010E946E07870161
:1011600053CF10E000E050CFFB01DC0102C0019042
:101170000D9241505040D8F70895FB01DC010190D9
:0C1180000D920020E1F70895F894FFCFD5
:10118C000000D60180000000000027018700B40099
:10119C007401E500C300D700535F763A2000204F5E
:0811AC005F763A20000D0A00F5
:00000001FF
