:020000040000FA
:100000000C9463000C948B000C948B000C948B006C
:100010000C948B000C948B000C948B000C948B0034
:100020000C948B000C948B000C948B000C94BA04F1
:100030000C948B000C948B000C948B000C948B0014
:100040000C9470040C948B000C948B000C948B001B
:100050000C948B000C948B000C948B000C948B00F4
:100060000C948B000C948B000000000024002700EF
:100070002A0000000000250028002B0000000000DE
:1000800023002600290004040404040404040202DA
:100090000202020203030303030301020408102007
:1000A0004080010204081020010204081020000012
:1000B0000008000201000003040700000000000027
:1000C0000000FA07C00811241FBECFEFD8E0DEBF42
:1000D000CDBF11E0A0E0B1E0EAEFF6E102C005908B
:1000E0000D92A034B107D9F722E0A0E4B1E001C03D
:1000F0001D92A530B207E1F710E0C2E6D0E004C0DF
:100100002197FE010E946F09C136D107C9F70E94ED
:1001100076050C94700B0C940000CF92DF92EF9256
:10012000FF92DC01A03282E0B807D4F5A53BB1050F
:1001300014F0A4EBB0E04091E10128E830E0241B8A
:10014000310947FD3395220F331F220F331F6901F9
:10015000330FEE08FF084091E20128E532E0241B4E
:10016000310947FD3395220F331F220F331F032E12
:10017000000C440B550B2C193D094E095F09B7FFC4
:1001800002C0B0E0A0E00E94F30824EB30E040E0C1
:1001900050E00E94C908C20ED31EE41EF51ED6010F
:1001A000E091E001EC3080F52091E10188E890E0F9
:1001B000821B910927FD9395880F991F880F991F1E
:1001C000A817B90784F02091E20188E592E0821B2C
:1001D000910927FD9395880F991F880F991FA817DC
:1001E000B9070CF4CD010297880F991F4FB7F89407
:1001F0002E2F30E0F901EE0FFF1FE20FF31FE45442
:10020000FE4F928381834FBFFF90EF90DF90CF909E
:10021000089596E0899FD0011124A35BBE4F90966C
:100220007C936E935F9791E091969C939197E09168
:10023000BA01F091BB019091B901992339F030973F
:1002400051F0811108C0809169010994309719F02B
:100250005C968C91FACF0895CF92DF92EF92FF9245
:100260000F931F9396E0899FF0011124E35BFE4FEB
:1002700011A2278D30A12130310551F178F02230C3
:10028000310509F451C02330310509F452C01F91E2
:100290000F91FF90EF90DF90CF9008956623B9F310
:1002A00061E070E00E9409012FB7F8948091490144
:1002B00090914A01A0914B01B0914C012FBF8093C6
:1002C000A5019093A601A093A701B093A801DFCF49
:1002D0009FB7F894C0904901D0904A01E0904B013B
:1002E000F0904C019FBF0091A5011091A6012091B3
:1002F000A7013091A801C01AD10AE20AF30A0091BD
:10030000B7011091B80130E020E00C151D052E0555
:100310003F0550F462E070E01F910F91FF90EF9065
:10032000DF90CF900C9409016111B1CF63E070E0D0
:10033000F3CF70E060E0F0CFAF92BF92CF92DF9248
:10034000EF92FF920F931F93CF93DF936C017B018A
:100350008B01040F151FEB015E01AE18BF08C0171B
:10036000D10759F06991D601ED91FC910190F0818E
:10037000E02DC6010995892B79F7C501DF91CF9151
:100380001F910F91FF90EF90DF90CF90BF90AF90B3
:100390000895833081F028F4813099F08230A9F0FB
:1003A00008958730A9F08830C9F08430B1F4809185
:1003B00080008F7D03C0809180008F7780938000C4
:1003C000089584B58F7784BD089584B58F7DFBCF64
:1003D0008091B0008F778093B00008958091B00035
:1003E0008F7DF9CFCF93DF93282F30E0F901E255CD
:1003F000FF4F8491F901E656FF4FD491F901EA5776
:10040000FF4FC491CC23A1F081110E94C901EC2FB0
:10041000F0E0EE0FFF1FE458FF4FA591B491EC916F
:10042000ED2381E090E009F480E0DF91CF91089521
:1004300080E090E0FACF862F0C94F2011F93CF93C7
:10044000DF93282F30E0F901E255FF4F8491F90145
:10045000E656FF4FD491F901EA57FF4FC491CC23E0
:10046000A9F0162F81110E94C901EC2FF0E0EE0FC8
:10047000FF1FEE58FF4FA591B4918FB7F894EC9100
:10048000111108C0D095DE23DC938FBFDF91CF918F
:100490001F910895DE2BF8CF862F642F0C941E0237
:1004A000CF93DF9390E0FC01E656FF4F24918A57EB
:1004B0009F4FFC0184918823C9F090E0880F991F19
:1004C000FC01E859FF4FA591B491FC01EE58FF4F94
:1004D000C591D49161110DC09FB7F8948C9120956E
:1004E00082238C938881282328839FBFDF91CF911B
:1004F0000895623051F49FB7F8943C91822F809513
:1005000083238C93E8812E2BEFCF8FB7F894EC9157
:100510002E2B2C938FBFEACF862F642F0C94500282
:100520003FB7F8948091430190914401A091450117
:10053000B091460126B5A89B05C02F3F19F0019642
:10054000A11DB11D3FBFBA2FA92F982F8827BC012D
:10055000CD01620F711D811D911D42E0660F771F55
:10056000881F991F4A95D1F708958F929F92AF9255
:10057000BF92CF92DF92EF92FF924B015C010E94FB
:1005800090026B017C010E9490026C197D098E091A
:100590009F09683E734081059105A8F321E0821A06
:1005A0009108A108B10888EEC80E83E0D81EE11CAE
:1005B000F11C81149104A104B10429F7FF90EF907C
:1005C000DF90CF90BF90AF909F908F900895089547
:1005D00090E080E00895CF93DF93EC018091E301F8
:1005E0009091E401009759F02091E5013091E601E6
:1005F0002C173D0720F081E0DF91CF910895BE01D7
:100600006F5F7F4F0E949A0A009789F09093E401F0
:100610008093E301D093E601C093E5012091E701C7
:100620003091E801232B39F7FC011082E4CF80E000
:10063000E3CFCF93DF93EC0160E08E810E941E0236
:1006400061E08E810E941E0260E08E810E941E0287
:100650008BE891E00197F1F7DF91CF910895CF9268
:10066000DF92EF92FF920F931F93CF93DF936C0172
:100670007C0187E0E80EF11CD0E0C0E0062F10E01E
:10068000B8010C2E02C0759567950A94E2F7617067
:10069000F70181917F010E941E022196C430D1058D
:1006A00079F7C601DF91CF911F910F91FF90EF90E5
:1006B000DF90CF900C941903CF92DF92EF92FF92CC
:1006C0000F931F93CF93DF93EC01F62E642F8C8151
:1006D0000E941E028D818F3F19F060E00E941E0271
:1006E0000F2D10E08F8584FF25C06E0187E0C80EB6
:1006F000D11CF12CE12CB8010E2C02C07595679528
:100700000A94E2F76170F60181916F010E941E0266
:10071000FFEFEF1AFF0A88E0E816F10461F7CE0157
:10072000DF91CF911F910F91FF90EF90DF90CF90CD
:100730000C941903B80184E0759567958A95E1F7E3
:10074000CE010E942F036F2DCE01DF91CF911F911B
:100750000F91FF90EF90DF90CF900C942F03CF93E9
:10076000DF93823029F49091F80198609093F8011A
:100770008093FC011092FD0180E48093FE0180E1F2
:100780008093FF0180E58093000261E08091ED019C
:100790000E9450028091EE018F3F19F061E00E94AB
:1007A000500261E08091EF010E945002C9EED1E059
:1007B0009E01295E31408091F80184FD0BC084E0E8
:1007C00090E021962817390744F461E08E810E9459
:1007D0005002EECF88E090E0F4CF8BE39DE00197EC
:1007E000F1F760E08091ED010E941E0260E08091CF
:1007F000EF010E941E028091EE018F3F19F060E030
:100800000E941E026091F80164FD45C063E089EE1C
:1008100091E00E942F03CBE4D6E4CE010197F1F7DB
:1008200063E089EE91E00E942F032197F1F763E0E6
:1008300089EE91E00E942F0383E592E00197F1F7A2
:1008400062E089EE91E00E942F036091F8016062FE
:1008500040E089EE91E00E945C0384E08093F9011E
:1008600040E06CE089EE91E00E945C0340E061E0D2
:1008700089EE91E00E945C038BE39FE10197F1F721
:1008800082E08093FA0140E066E089EE91E0DF913A
:10089000CF910C945C03606240E089EE91E00E948D
:1008A0005C038BE496E40197F1F76091F8016062D4
:1008B00040E089EE91E00E945C0383E592E00197BD
:1008C000F1F76091F801606240E089EE91E00E94EA
:1008D0005C03BBCF41E00E945C0381E090E008959F
:1008E0001F920F920FB60F9211242F933F938F9365
:1008F0009F93AF93BF938091490190914A01A0913A
:100900004B01B0914C013091420123E0230F2D3770
:1009100058F50196A11DB11D209342018093490114
:1009200090934A01A0934B01B0934C0180914301F5
:1009300090914401A0914501B09146010196A11DFD
:10094000B11D8093430190934401A0934501B0935E
:100950004601BF91AF919F918F913F912F910F9041
:100960000FBE0F901F90189526E8230F0296A11D29
:10097000B11DD2CF1F920F920FB60F9211242F9359
:100980003F934F935F936F937F938F939F93AF9317
:10099000BF93CF93DF93EF93FF9380914101C09179
:1009A0004001D0E087FF24C010928500109284009F
:1009B000809141018F5F8093410180914101082E18
:1009C000000C990B8C179D0724F4809141018C3009
:1009D000C4F18091840090918500049680349C49F4
:1009E00008F47AC08091840090918500049676C0C6
:1009F00080914101082E000C990B8C179D07C4F6BD
:100A0000E09141018E2FEE0F990BFC01EE0FFF1FBD
:100A1000E80FF91FE454FE4F808186FFC9CFE091B3
:100A200041018E2FEE0F990BFC01EE0FFF1FE80F17
:100A3000F91FE454FE4F808160E08F730E941E0214
:100A4000B7CF2091840030918500E09141018E2F35
:100A5000EE0F990BFC01EE0FFF1FE80FF91FE45496
:100A6000FE4F81819281820F931F90938900809322
:100A70008800E09141018E2FEE0F990BFC01EE0FE3
:100A8000FF1FE80FF91FE454FE4F808186FF11C05D
:100A9000E09141018E2FEE0F990BFC01EE0FFF1F2D
:100AA000E80FF91FE454FE4F808161E08F730E94CC
:100AB0001E02FF91EF91DF91CF91BF91AF919F9176
:100AC0008F917F916F915F914F913F912F910F90F7
:100AD0000FBE0F901F90189580E49CE990938900B9
:100AE000809388008FEF80934101E3CFCF93DF9312
:100AF00000D0CDB7DEB7789484B5826084BD84B56C
:100B0000816084BD85B5826085BD85B5816085BD08
:100B100080916E00816080936E00109281008091C0
:100B20008100826080938100809181008160809348
:100B30008100809180008160809380008091B1006D
:100B400084608093B1008091B00081608093B00098
:100B500080917A00846080937A0080917A0082602C
:100B600080937A0080917A00816080937A008091EE
:100B70007A00806880937A001092C10082E00E941F
:100B8000AF038091E0018C3008F051C061E087E054
:100B90000E9450028091E001282F30E0F901EE0F11
:100BA000FF1FE20FF31FE454FE4F9081907C97608B
:100BB00090831092E1011092E2012CE0622F0E94DA
:100BC0006309829FB001112430E020E0AB01420FA5
:100BD000531FFA01EE0FFF1FE40FF51FE454FE4F01
:100BE000908196FD16C02F5F3F4F2C30310571F775
:100BF00081110FC01092800082E0809381001092DA
:100C0000850010928400B19A80916F008260809379
:100C10006F00E091E0018E2F90E0FC01EE0FFF1FCE
:100C2000E80FF91FE454FE4F808180648083412CDB
:100C3000512C3201439488248A94982C51E050938B
:100C4000B9018FB7F8944091490150914A016091E0
:100C50004B0170914C018FBF8091A9019091AA0125
:100C6000A091AB01B091AC01481B590B6A0B7B0BF7
:100C70008091B5019091B601B0E0A0E0841795078E
:100C8000A607B70708F01BC110E08091B301181741
:100C900060F4E091AF01F091B001E10FF11D62E06D
:100CA00080810E9450021F5FF0CF312C8091B401EF
:100CB000381608F061C0E32CF12CE091B101F091FD
:100CC000B201EE0DFF1D61E080810E945002E091B3
:100CD000B101F091B201EE0DFF1D60E080810E9434
:100CE0001E02D301C201032C04C0880F991FAA1F42
:100CF000BB1F0A94D2F75C016C01C094D094212CE4
:100D00008091B301281608F5022D10E0E091AF01A3
:100D1000F091B001E00FF11F80810E94F2010C5FA1
:100D20001F4F000F111FF801E35BFE4F892B41F4A9
:100D3000808191818A299B29918380832394E0CFAC
:100D4000808191818C219D21F7CFE091B101F091BB
:100D5000B201EE0DFF1D61E080810E941E028091B4
:100D6000B1019091B201E80EF91E60E0F7018081B7
:100D70000E94500233949ACF9DE4E92E91E0F92E1F
:100D80008701F801878D90A1892B21F4148E968E0E
:100D9000858E11A20A5F1F4FF1E009381F0789F7FE
:100DA000D12C8091B301D81608F053C0C12CAD2CC2
:100DB000B12CAA0CBB1CC5018B5A9E4F5C01209123
:100DC000B401C21608F043C0F501608171810C2C9A
:100DD00002C0769567950A94E2F7D29E900111249D
:100DE0002C0D311DEDE4F1E080E0458D568D24178A
:100DF000350709F4FDC08F5F36968A30B1F760FF82
:100E000024C0EDE4F1E090E080E0448D411118C091
:100E1000E091AD01F091AE01E20FF31F408156E089
:100E2000589FF001599FF00D1124E35BFE4F448F52
:100E3000368F258F10A2178E61E00E942C0105C00D
:100E4000019636968A30910501F7C394B8CFD394B2
:100E5000A8CF80E0F70191A19111892FF6E0EF0E64
:100E6000F11C0E151F05B1F79FB7F8944091490189
:100E700050914A0160914B0170914C019FBF40938A
:100E8000A9015093AA016093AB017093AC01882330
:100E9000B1F080916E01882391F080916C01909166
:100EA0006D01019761F4F0906901F1100BC080E0D1
:100EB00090E0892B09F4C2CE0E940000BFCE1092B0
:100EC000B901F5CFF9821A820091E7011091E8018A
:100ED0000F5F1F4FC8010E94EB02882399F02091F9
:100EE000E3013091E4018091E7019091E801BE01B6
:100EF0006F5F7F4F820F931F0E94690B1093E80171
:100F00000093E7018091E7019091E801892B09F4B2
:100F100068C06FE271E08091E3019091E4010E946A
:100F2000600B892B09F05DC041E06F2D89EE91E0E7
:100F30000E945C0342E050E064E371E089EE91E0DE
:100F40000E949C0147E050E067E371E089EE91E088
:100F50000E949C0164E670E080E090E00E94B5028F
:100F60008AE590E090934801809347010091470102
:100F700010914801053B110584F4C8010E948D00C1
:100F800062E370E080E090E00E94B5020F5F1F4FC7
:100F90001093480100934701E9CF68EC70E080E0CE
:100FA00090E00E94B502E4EBF0E0F0934801E0939A
:100FB000470100914701109148010A3511050CF4D1
:100FC00076CFC8010E948D0062E370E080E090E07F
:100FD0000E94B50201501109109348010093470186
:100FE000E8CF41E06F2D89EE91E00E945C035FCF76
:100FF000617023CFCF931092E4011092E30110921D
:10100000E6011092E5011092E8011092E70190E0EC
:1010100080E00E94EB022091E3013091E401811114
:10102000A2C02115310519F0C9010E94110A1092C0
:10103000E4011092E3011092E8011092E70110928E
:10104000E6011092E50110924F01109253011092A7
:1010500052011092540189E291E090934E018093E5
:101060004D01E9E6F1E085EA91E0108214821382F5
:10107000158236968E179F07C1F783E091E0909313
:10108000B0018093AF0180E091E09093B201809332
:10109000B10184E08093B30183E08093B40187E0E1
:1010A00091E09093AE018093AD018AE090E090933F
:1010B000B6018093B50184EF91E09093B8018093DD
:1010C000B7011092BB011092BA011092A9011092BF
:1010D000AA011092AB011092AC011092B9011092CA
:1010E000EC011092EB018DE191E09093EA01809385
:1010F000E9018DE08093ED01CFEFC093EE018CE02C
:101100008093EF018BE08093F0018AE08093F101FE
:1011100089E08093F20188E08093F3011092F4015A
:101120001092F5011092F6011092F7011092F80159
:1011300081E00E94AF03809140018C30F0F491E097
:10114000980F909340018093E00190E0FC01EE0F36
:10115000FF1FE80FF91FE454FE4F88EB9BE09283DA
:101160008183CF9108951092E8011092E70166E320
:1011700071E0C9010E94690B66CFC093E001F1CF15
:101180008091E3019091E401009711F00C94110A11
:101190000895052E97FB1EF400940E94E00857FD69
:1011A00007D00E94320907FC03D04EF40C94E008EB
:1011B00050954095309521953F4F4F4F5F4F089583
:1011C00090958095709561957F4F8F4F9F4F0895B3
:1011D0000E945409A59F900DB49F900DA49F800D6F
:1011E000911D11240895B7FF0C94E8080E94E808A7
:1011F000821B930B08952F923F924F925F926F92B2
:101200007F928F929F92AF92BF92CF92DF92EF9296
:10121000FF920F931F93CF93DF93CDB7DEB7CA1B17
:10122000DB0B0FB6F894DEBF0FBECDBF09942A8842
:10123000398848885F846E847D848C849B84AA84EA
:10124000B984C884DF80EE80FD800C811B81AA8177
:10125000B981CE0FD11D0FB6F894DEBF0FBECDBF42
:10126000ED010895A1E21A2EAA1BBB1BFD010DC0C2
:10127000AA1FBB1FEE1FFF1FA217B307E407F50746
:1012800020F0A21BB30BE40BF50B661F771F881F22
:10129000991F1A9469F760957095809590959B01B8
:1012A000AC01BD01CF010895A29FB001B39FC00161
:1012B000A39F700D811D1124911DB29F700D811D82
:1012C0001124911D0895991B79E004C0991F961768
:1012D00008F0961B881F7A95C9F780950895EE0F40
:1012E000FF1F0590F491E02D09940F931F93CF9366
:1012F000DF938230910510F482E090E0E0910302E8
:10130000F091040230E020E0B0E0A0E0309799F4E2
:101310002115310509F44AC0281B390B2430310549
:10132000D8F58A819B816115710589F1FB01938351
:101330008283FE0111C040815181028113814817CF
:101340005907E0F04817590799F4109761F0129681
:101350000C93129713961C933296CF01DF91CF9185
:101360001F910F9108950093030210930402F4CF8C
:101370002115310551F04217530738F0A901DB015F
:101380009A01BD01DF01F801C1CFEF01F9CF9093C0
:10139000040280930302CDCFFE01E20FF31F81937D
:1013A00091932250310939832883D7CF20910102AC
:1013B00030910202232B41F4209115013091160146
:1013C0003093020220930102209113013091140105
:1013D0002115310541F42DB73EB7409117015091C9
:1013E0001801241B350BE0910102F0910202E21773
:1013F000F307A0F42E1B3F0B2817390778F0AC0138
:101400004E5F5F4F2417350748F04E0F5F1F509314
:10141000020240930102819391939FCFF0E0E0E0BC
:101420009CCFCF93DF930097E9F0FC0132971382B2
:101430001282A0910302B0910402ED0130E020E09D
:101440001097A1F420813181820F931F2091010216
:10145000309102022817390709F061C0F0930202A7
:10146000E0930102DF91CF910895EA01CE17DF07E3
:10147000E8F54A815B819E0141155105B1F7E9010B
:10148000FB83EA8349915991C40FD51FEC17FD07DF
:1014900061F4808191810296840F951FE9019983FF
:1014A0008883828193819B838A83F0E0E0E01296B7
:1014B0008D919C9113970097B9F52D913C911197BF
:1014C000CD010296820F931F2091010230910202FA
:1014D0002817390739F6309751F510920402109207
:1014E0000302B0930202A0930102BCCFD383C28354
:1014F00040815181840F951FC817D90761F44E5F51
:101500005F4F88819981480F591F518340838A8199
:101510009B81938382832115310509F0B0CFF0932D
:101520000402E09303029ECFFD01DC01C0CF1382D1
:101530001282D7CFB0E0A0E0E0EAFAE00C94FD0818
:101540008C01009751F4CB010E9475098C01C801F0
:10155000CDB7DEB7E0E10C941909FC01E60FF71FE7
:101560009C0122503109E217F30708F49DC0D9010C
:10157000CD91DC911197C617D70798F0C530D105EA
:1015800030F3CE0104978617970708F3C61BD70BD5
:101590002297C193D1936D937C93CF010E94110A3E
:1015A000D6CF5B01AC1ABD0A4C018C0E9D1EA091DA
:1015B0000302B0910402512C412CF12CE12C109724
:1015C00031F580910102909102028815990509F088
:1015D0005CC04616570608F058C0809113019091E0
:1015E0001401009741F48DB79EB7409117015091B7
:1015F0001801841B950BE817F90708F055C0F09304
:101600000202E0930102F90171836083A0CF8D9102
:101610009C91119712966C90129713967C90139749
:10162000A815B90559F56C0142E0C40ED11CCA14C5
:10163000DB0420F1AC014A195B09DA011296159717
:1016400080F06282738251834083D9016D937C93D1
:10165000E114F10471F0D7011396FC93EE93129705
:1016600076CF22968C0F9D1FF90191838083F30121
:10167000EFCFF0930402E093030269CF48165906B6
:1016800008F42C017D01D3019ACFCB010E9475098A
:101690007C01009749F0AE01B8010E94570BC801C8
:1016A0000E94110A870153CF10E000E050CFFB01E8
:1016B000DC0102C001900D9241505040D8F70895CE
:1016C000FB01DC018D91019080190110D9F3990B78
:1016D0000895FB01DC0101900D920020E1F70895CF
:1016E00010E0C2E6D0E004C0FE010E946F0921961E
:1016F000C336D107C9F7F894FFCF040506030201EA
:10170000003132333435363738392A30230000057A
:10171000028000000000006A049C01E802E7020069
:101720000000008C024C021B0231323334000D0ADF
:0A1730000057656C636F6D650000E3
:107E0000112484B714BE81FFF0D085E080938100F7
:107E100082E08093C00088E18093C10086E0809377
:107E2000C20080E18093C4008EE0C9D0259A86E02C
:107E300020E33CEF91E0309385002093840096BBD3
:107E4000B09BFECF1D9AA8958150A9F7CC24DD24C4
:107E500088248394B5E0AB2EA1E19A2EF3E0BF2EE7
:107E6000A2D0813461F49FD0082FAFD0023811F036
:107E7000013811F484E001C083E08DD089C08234E0
:107E800011F484E103C0853419F485E0A6D080C0E4
:107E9000853579F488D0E82EFF2485D0082F10E0AE
:107EA000102F00270E291F29000F111F8ED06801E7
:107EB0006FC0863521F484E090D080E0DECF843638
:107EC00009F040C070D06FD0082F6DD080E0C81688
:107ED00080E7D80618F4F601B7BEE895C0E0D1E017
:107EE00062D089930C17E1F7F0E0CF16F0E7DF06D8
:107EF00018F0F601B7BEE89568D007B600FCFDCFD4
:107F0000A601A0E0B1E02C9130E011968C91119780
:107F100090E0982F8827822B932B1296FA010C0160
:107F200087BEE89511244E5F5F4FF1E0A038BF0790
:107F300051F7F601A7BEE89507B600FCFDCF97BE46
:107F4000E89526C08437B1F42ED02DD0F82E2BD052
:107F50003CD0F601EF2C8F010F5F1F4F84911BD097
:107F6000EA94F801C1F70894C11CD11CFA94CF0C13
:107F7000D11C0EC0853739F428D08EE10CD085E9AC
:107F80000AD08FE07ACF813511F488E018D01DD067
:107F900080E101D065CF982F8091C00085FFFCCF94
:107FA0009093C60008958091C00087FFFCCF809118
:107FB000C00084FD01C0A8958091C6000895E0E648
:107FC000F0E098E1908380830895EDDF803219F02E
:107FD00088E0F5DFFFCF84E1DECF1F93182FE3DFCA
:107FE0001150E9F7F2DF1F91089580E0E8DFEE27F6
:047FF000FF270994CA
:027FFE00040479
:00000001FF
