:020000040000FA
:100000000C9462000C948A000C948A000C948A0070
:100010000C948A000C948A000C948A000C948A0038
:100020000C948A000C948A000C948A000C948A0028
:100030000C948A000C948A000C948A000C948A0018
:100040000C9478040C948A000C9446040C942004BC
:100050000C948A000C948A000C948A000C948A00F8
:100060000C948A000C948A000000000024002700F1
:100070002A0000000000250028002B0000000000DE
:1000800023002600290004040404040404040202DA
:100090000202020203030303030301020408102007
:1000A0004080010204081020010204081020000012
:1000B0000008000201000003040700000000000027
:1000C0000000A50611241FBECFEFD8E0DEBFCDBFD4
:1000D00011E0A0E0B1E0EEE1F3E102C005900D9285
:1000E000A439B107D9F722E0A4E9B1E001C01D921B
:1000F000A634B207E1F710E0C2E6D0E004C02197D1
:10010000FE010E949507C136D107C9F70E94C204BB
:100110000C948D090C940000AF92BF92CF92DF92A5
:10012000EF92FF920F931F93CF93DF936C017B01AC
:100130008B01040F151FEB015E01AE18BF08C0173D
:10014000D10759F06991D601ED91FC910190F081B0
:10015000E02DC6010995892B79F7C501DF91CF9173
:100160001F910F91FF90EF90DF90CF90BF90AF90D5
:10017000089542E050E068E171E085EA91E00C9476
:100180008C00FC01448155816081718185EA91E098
:100190000C948C00FC01538D448D252F30E0842F6E
:1001A00090E0821B930B541710F0CF96089501979F
:1001B0000895FC01918D828D981761F0A28DAE0F8C
:1001C000BF2FB11D5D968C91928D9F5F9F73928F13
:1001D00090E008958FEF9FEF0895FC01918D828D3F
:1001E000981731F0828DE80FF11D858D90E008950C
:1001F0008FEF9FEF0895FC01918D228D892F90E064
:10020000805C9F4F821B91098F739927089585EA1F
:1002100091E00E94FB0021E0892B09F420E0822F6D
:10022000089580E090E0892B29F00E940701811158
:100230000C9400000895FC01A48DA80FB92FB11DE6
:10024000A35ABF4F2C91848D90E001968F7399270C
:10025000848FA689B7892C93A089B1898C918370EA
:1002600080648C93938D848D981306C00288F389E3
:10027000E02D80818F7D80830895EF92FF920F9310
:100280001F93CF93DF93EC0181E0888F9B8D8C8D42
:1002900098131AC0E889F989808185FF15C09FB736
:1002A000F894EE89FF896083E889F98980818370F9
:1002B000806480839FBF81E090E0DF91CF911F91A8
:1002C0000F91FF90EF900895F62E0B8D10E00F5FC9
:1002D0001F4F0F731127E02E8C8D8E110CC00FB69F
:1002E00007FCFACFE889F989808185FFF5CFCE0137
:1002F0000E941B01F1CFEB8DEC0FFD2FF11DE35A96
:10030000FF4FF0829FB7F8940B8FEA89FB898081B9
:100310008062CFCFCF93DF93EC01888D8823B9F033
:10032000AA89BB89E889F9898C9185FD03C0808100
:1003300086FD0DC00FB607FCF7CF8C9185FFF2CF7D
:10034000808185FFEDCFCE010E941B01E9CFDF91B7
:10035000CF910895833081F028F4813099F0823074
:10036000A9F008958730A9F08830C9F08430B1F43D
:10037000809180008F7D03C0809180008F77809373
:100380008000089584B58F7784BD089584B58F7DEE
:10039000FBCF8091B0008F778093B000089580915B
:1003A000B0008F7DF9CFCF93DF93282F30E0F90194
:1003B000E255FF4F8491F901E656FF4FD491F901C0
:1003C000EA57FF4FC491CC23A1F081110E94AA01EA
:1003D000EC2FF0E0EE0FFF1FE458FF4FA591B49112
:1003E000EC91ED2381E090E009F480E0DF91CF9182
:1003F000089580E090E0FACF1F93CF93DF93282FEA
:1004000030E0F901E255FF4F8491F901E656FF4FC4
:10041000D491F901EA57FF4FC491CC23A9F0162FCC
:1004200081110E94AA01EC2FF0E0EE0FFF1FEE58A1
:10043000FF4FA591B4918FB7F894EC91111108C0BA
:10044000D095DE23DC938FBFDF91CF911F9108956C
:10045000DE2BF8CFCF93DF9390E0FC01E656FF4F01
:1004600024918A579F4FFC0184918823D1F090E01A
:10047000880F991FFC01E859FF4FA591B491FC0129
:10048000EE58FF4FC591D49161110EC09FB7F894FB
:100490008C91E22FE0958E238C932881E223E883D0
:1004A0009FBFDF91CF9108958FB7F894EC91E22B25
:1004B000EC938FBFF6CF1F93CF93DF93182FEB01F1
:1004C00061E00E942A02209739F460E0812FDF91D9
:1004D000CF911F910C94FC01CF3FD10511F461E045
:1004E000F5CFE12FF0E0E255FF4FE491E33031F139
:1004F00040F4E130B1F0E230E1F0C038D1057CF7F2
:10050000E4CFE73029F1E83059F1E430B1F78091D8
:100510008000806280938000D0938B00C0938A001B
:1005200004C084B5806884BDC7BDDF91CF911F91A1
:10053000089584B5806284BDC8BDF7CF80918000E6
:10054000806880938000D0938900C0938800EDCFAD
:100550008091B00080688093B000C093B300E5CF75
:100560008091B00080628093B000C093B400DDCF72
:100570008E50806480937C0080917A0080648093A8
:100580007A0080917A0086FDFCCF8091780090916E
:10059000790008953FB7F8948091990190919A015C
:1005A000A0919B01B0919C0126B5A89B05C02F3F4F
:1005B00019F00196A11DB11D3FBFBA2FA92F982F89
:1005C0008827BC01CD01620F711D811D911D42E084
:1005D000660F771F881F991F4A95D1F708950F93CB
:1005E0001F93CF93DF93EC0188819981009759F095
:1005F0002A813B812617370730F081E0DF91CF91C8
:100600001F910F9108958B016F5F7F4F0E94C0086B
:10061000009759F0998388831B830A832C813D813D
:10062000232B59F7FC011082E8CF80E0E7CFCF936E
:10063000DF93EC0188819981009711F00E943708BF
:10064000198218821D821C821B821A82DF91CF912F
:100650000895CF92DF92EF92FF920F931F93CF9363
:10066000DF93CDB7DEB728970FB6F894DEBF0FBE85
:10067000CDBF7C01CB014AE09E012F5F3F4F690156
:10068000B9010E94D206F60101900020E9F73197E6
:10069000EC19FD09D9F0D70114960D911C910E0F9C
:1006A0001F1FB801C7010E94EF028823F9F0F7016C
:1006B0002081318184819581B601820F931F0E9430
:1006C0008609D70115961C930E931497C701289697
:1006D0000FB6F894DEBF0FBECDBFDF91CF911F9153
:1006E0000F91FF90EF90DF90CF900895C7010E9487
:1006F0001703ECCFEF92FF920F931F93CF93DF93EB
:10070000EC01FB01E080F180E114F10411F10481BE
:10071000158101151105A9F08C819D81080F191F04
:10072000B801CE010E94EF02882399F02881398117
:100730008C819D81B701820F931F0E9486091D83C2
:100740000C83CE01DF91CF911F910F91FF90EF901D
:100750000895CE010E941703F4CFEF92FF920F93FA
:100760001F93CF93DF93EC017B01198218821B82C8
:100770001A821D821C82FB0101900020E9F731974B
:100780008F01061B170BB8010E94EF02811109C0EF
:10079000CE01DF91CF911F910F91FF90EF900C94BC
:1007A00017031D830C83B70188819981DF91CF9155
:1007B0001F910F91FF90EF900C948609FC018081AE
:1007C0009181009711F00C9437080895EF92FF92F1
:1007D0000F931F93CF93DF93EC01198218821B8232
:1007E0001A821D821C828617970719F1FB0100816E
:1007F000118101151105E9F0E480F580B7010E942F
:10080000EF02811109C0CE01DF91CF911F910F91AD
:10081000FF90EF900C941703FD82EC82B801888161
:100820009981DF91CF911F910F91FF90EF900C94E0
:100830008609DF91CF911F910F91FF90EF9008955E
:100840001F920F920FB60F9211242F933F934F9345
:100850005F936F937F938F939F93AF93BF93EF9328
:10086000FF9385EA91E00E941B01FF91EF91BF91F8
:10087000AF919F918F917F916F915F914F913F9138
:100880002F910F900FBE0F901F9018951F920F92EF
:100890000FB60F9211242F938F939F93EF93FF9393
:1008A000E091B501F091B6018081E091BB01F0913A
:1008B000BC0182FD1BC090818091BE018F5F8F7350
:1008C0002091BF01821741F0E091BE01F0E0EB55AD
:1008D000FE4F958F8093BE01FF91EF919F918F9175
:1008E0002F910F900FBE0F901F9018958081F4CF1D
:1008F0001F920F920FB60F9211242F933F938F9355
:100900009F93AF93BF938091950190919601A09191
:100910009701B09198013091940123E0230F2D3776
:1009200058F50196A11DB11D209394018093950166
:1009300090939601A0939701B093980180919901AB
:1009400090919A01A0919B01B0919C010196A11DEB
:10095000B11D8093990190939A01A0939B01B0934C
:100960009C01BF91AF919F918F913F912F910F90DB
:100970000FBE0F901F90189526E8230F0296A11D19
:10098000B11DD2CFCF93DF93CDB7DEB768970FB647
:10099000F894DEBF0FBECDBF789484B5826084BD6D
:1009A00084B5816084BD85B5826085BD85B5816073
:1009B00085BD80916E00816080936E0010928100F1
:1009C00080918100826080938100809181008160AC
:1009D000809381008091800081608093800080916D
:1009E000B10084608093B1008091B00081608093F9
:1009F000B00080917A00846080937A0080917A00C0
:100A0000826080937A0080917A00816080937A007E
:100A100080917A00806880937A001092C100E09102
:100A2000B501F091B60182E08083E091B101F091CF
:100A3000B2011082E091B301F091B4018FEC808398
:100A40001092BD01E091B901F091BA0186E0808376
:100A5000E091B701F091B801808180618083E091DD
:100A6000B701F091B801808188608083E091B7017F
:100A7000F091B801808180688083E091B701F091A6
:100A8000B80180818F7D808310E000E00230110585
:100A900039F00430110521F061E0802F0E942A0214
:100AA0000F5F1F4F0A30110589F760E08AE00E944E
:100AB0002A0260E08BE00E942A0244244A9493E0D8
:100AC000592E612C712C00E010E08EE00E94B802DB
:100AD0002FEF30E0DC010E948E07A30192010E94FB
:100AE00007073093A4012093A3018FE00E94B8026E
:100AF0002FEF30E0DC010E948E07A30192010E94DB
:100B000007073093A2012093A1018AE00E94D3013C
:100B10006C019093A00180939F018BE00E94D30110
:100B20007C0190939E0180939D016BE271E0CA94D9
:100B3000CD2811F46BE171E0CE0143960E94AD0324
:100B40006BE271E0EA94EF2811F46BE171E0CE0101
:100B50000D960E94AD0366E371E0CE0107960E94F8
:100B6000AD03BE01695F7F4FCE0101960E94E6038F
:100B7000BE016D5E7F4FCE0101960E947A030E94F6
:100B8000C100CE0101960E94DE03CE0107960E94AD
:100B9000DE030E94B900E090A301F090A40161E59A
:100BA00071E0CE0107960E94AD03BE01695F7F4FE1
:100BB000CE0101960E94E603B701CE0101960E9484
:100BC00029030E94C100CE0101960E94DE03CE01DE
:100BD00007960E94DE030E94B90064E671E0CE0130
:100BE00007960E94AD03BE01695F7F4FCE0101965B
:100BF0000E94E603BE01635F7F4FCE0101960E9413
:100C00007A030E94C100CE0101960E94DE03CE014C
:100C100007960E94DE030E94B900E090A101F090C7
:100C2000A20160E871E0CE0107960E94AD03BE010B
:100C3000695F7F4FCE0101960E94E603B701CE01A6
:100C400001960E9429030E94C100CE0101960E94D4
:100C5000DE03CE0107960E94DE030E94B9000E94C7
:100C6000B9000E94B900E0909F01F090A00160914E
:100C7000A3017091A40189E00E945B02EA94EF282D
:100C800009F057C060E088E00E94FC0161E087E065
:100C90000E94FC01E0909D01F0909E016091A101F5
:100CA0007091A20183E00E945B02EA94EF2809F0B0
:100CB00046C061E086E00E94FC0160E085E00E94A1
:100CC000FC010E94CA024B015C0184E6C82ED12CB3
:100CD000E12CF12C0E94CA02681979098A099B0942
:100CE000683E734081059105A8F321E0C21AD1083E
:100CF000E108F10888EE880E83E0981EA11CB11C63
:100D0000C114D104E104F10429F7CE010D960E942B
:100D1000DE03CE0143960E94DE030115110509F49E
:100D2000D4CE0E940701882309F4CFCE0E94000090
:100D3000CCCE61E088E00E94FC0160E0A8CF60E0DA
:100D400086E00E94FC0161E0B9CFE5EAF1E01382A0
:100D5000128288EE93E0A0E0B0E084839583A683BE
:100D6000B7838AE091E09183808385EC90E095875A
:100D7000848784EC90E09787868780EC90E0918B65
:100D8000808B81EC90E0938B828B82EC90E0958B52
:100D9000848B86EC90E0978B868B118E128E138E4F
:100DA000148E0895BB274A3031F4992322F4BDE212
:100DB000909581959F4F0C94DE06BB27FB0155272C
:100DC000AA27880F991FAA1FA41710F0A41B8395A8
:100DD0005051B9F7A05DAA3308F0A95DA19300971F
:100DE00079F7B111B1931192CB010C94F706DC01A4
:100DF000FC01672F71917723E1F7329704C07C9152
:100E00006D9370836291AE17BF07C8F30895052EE6
:100E100097FB1EF400940E941E0757FD07D00E9406
:100E20005D0707FC03D04EF40C941E0750954095C7
:100E3000309521953F4F4F4F5F4F08959095809586
:100E4000709561957F4F8F4F9F4F08952F923F92DE
:100E50004F925F926F927F928F929F92AF92BF92CA
:100E6000CF92DF92EF92FF920F931F93CF93DF9376
:100E7000CDB7DEB7CA1BDB0B0FB6F894DEBF0FBED3
:100E8000CDBF09942A88398848885F846E847D8420
:100E90008C849B84AA84B984C884DF80EE80FD8022
:100EA0000C811B81AA81B981CE0FD11D0FB6F89498
:100EB000DEBF0FBECDBFED010895A1E21A2EAA1B21
:100EC000BB1BFD010DC0AA1FBB1FEE1FFF1FA217FA
:100ED000B307E407F50720F0A21BB30BE40BF50BF7
:100EE000661F771F881F991F1A9469F76095709580
:100EF000809590959B01AC01BD01CF010895A29F03
:100F0000B001B39FC001A39F700D811D1124911DDD
:100F1000B29F700D811D1124911D08950E947F07BD
:100F2000B7FF0895821B930B0895EE0FFF1F0590E6
:100F3000F491E02D09940F931F93CF93DF938230A8
:100F4000910510F482E090E0E0914402F0914502B6
:100F500030E020E0B0E0A0E0309799F421153105B1
:100F600009F44AC0281B390B24303105D8F58A8191
:100F70009B816115710589F1FB0193838283FE01D9
:100F800011C0408151810281138148175907E0F057
:100F90004817590799F4109761F012960C9312971D
:100FA00013961C933296CF01DF91CF911F910F9131
:100FB00008950093440210934502F4CF21153105A2
:100FC00051F04217530738F0A901DB019A01BD0126
:100FD000DF01F801C1CFEF01F9CF90934502809373
:100FE0004402CDCFFE01E20FF31F81939193225073
:100FF000310939832883D7CF2091420230914302AF
:10100000232B41F4209102013091030130934302DC
:1010100020934202209100013091010121153105F8
:1010200041F42DB73EB74091040150910501241BB6
:10103000350BE0914202F0914302E217F307A0F46E
:101040002E1B3F0B2817390778F0AC014E5F5F4F1E
:101050002417350748F04E0F5F1F5093430240930B
:101060004202819391939FCFF0E0E0E09CCFCF9339
:10107000DF930097E9F0FC01329713821282A0916E
:101080004402B0914502ED0130E020E01097A1F458
:1010900020813181820F931F2091420230914302BF
:1010A0002817390709F061C0F0934302E093420228
:1010B000DF91CF910895EA01CE17DF07E8F54A8165
:1010C0005B819E0141155105B1F7E901FB83EA837C
:1010D00049915991C40FD51FEC17FD0761F4808128
:1010E00091810296840F951FE901998388838281FB
:1010F00093819B838A83F0E0E0E012968D919C912E
:1011000013970097B9F52D913C911197CD01029657
:10111000820F931F20914202309143022817390712
:1011200039F6309751F51092450210924402B0936F
:101130004302A0934202BCCFD383C283408151813A
:10114000840F951FC817D90761F44E5F5F4F8881E0
:101150009981480F591F518340838A819B819383D2
:1011600082832115310509F0B0CFF0934502E09359
:1011700044029ECFFD01DC01C0CF13821282D7CF83
:10118000B0E0A0E0E6ECF8E00C9428078C010097B2
:1011900051F4CB010E949B078C01C801CDB7DEB78B
:1011A000E0E10C944407FC01E60FF71F9C0122507C
:1011B0003109E217F30708F49DC0D901CD91DC9104
:1011C0001197C617D70798F0C530D10530F3CE0177
:1011D00004978617970708F3C61BD70B2297C1936E
:1011E000D1936D937C93CF010E943708D6CF5B01DA
:1011F000AC1ABD0A4C018C0E9D1EA0914402B09108
:101200004502512C412CF12CE12C109731F58091A5
:101210004202909143028815990509F05CC0461678
:10122000570608F058C08091000190910101009785
:1012300041F48DB79EB74091040150910501841B84
:10124000950BE817F90708F055C0F0934302E093B7
:101250004202F90171836083A0CF8D919C91119717
:1012600012966C90129713967C901397A815B90557
:1012700059F56C0142E0C40ED11CCA14DB0420F104
:10128000AC014A195B09DA011296159780F0628267
:10129000738251834083D9016D937C93E114F104EF
:1012A00071F0D7011396FC93EE93129776CF2296A6
:1012B0008C0F9D1FF90191838083F301EFCFF09391
:1012C0004502E093440269CF4816590608F42C0100
:1012D0007D01D3019ACFCB010E949B077C0100972F
:1012E00049F0AE01B8010E947D09C8010E9437088B
:1012F000870153CF10E000E050CFFB01DC0102C0BA
:1013000001900D9241505040D8F70895FB01DC0147
:1013100001900D920020E1F70895F894FFCF0000AE
:1013200046028000000000003D018C00CA008A01D6
:10133000FB00D900ED000D0A0020416E74692D43B9
:101340006C6F636B776973650020436C6F636B77B9
:10135000697365004C656674206D6F746F722072DE
:101360006F746174696F6E206D6F64653A20004C14
:10137000656674206D6F746F722073706565643A72
:1013800020005269676874206D6F746F7220726FED
:10139000746174696F6E206D6F64653A20005269E4
:1013A000676874206D6F746F722073706565643A3E
:0213B00020001B
:107E0000112484B714BE81FFF0D085E080938100F7
:107E100082E08093C00088E18093C10086E0809377
:107E2000C20080E18093C4008EE0C9D0259A86E02C
:107E300020E33CEF91E0309385002093840096BBD3
:107E4000B09BFECF1D9AA8958150A9F7CC24DD24C4
:107E500088248394B5E0AB2EA1E19A2EF3E0BF2EE7
:107E6000A2D0813461F49FD0082FAFD0023811F036
:107E7000013811F484E001C083E08DD089C08234E0
:107E800011F484E103C0853419F485E0A6D080C0E4
:107E9000853579F488D0E82EFF2485D0082F10E0AE
:107EA000102F00270E291F29000F111F8ED06801E7
:107EB0006FC0863521F484E090D080E0DECF843638
:107EC00009F040C070D06FD0082F6DD080E0C81688
:107ED00080E7D80618F4F601B7BEE895C0E0D1E017
:107EE00062D089930C17E1F7F0E0CF16F0E7DF06D8
:107EF00018F0F601B7BEE89568D007B600FCFDCFD4
:107F0000A601A0E0B1E02C9130E011968C91119780
:107F100090E0982F8827822B932B1296FA010C0160
:107F200087BEE89511244E5F5F4FF1E0A038BF0790
:107F300051F7F601A7BEE89507B600FCFDCF97BE46
:107F4000E89526C08437B1F42ED02DD0F82E2BD052
:107F50003CD0F601EF2C8F010F5F1F4F84911BD097
:107F6000EA94F801C1F70894C11CD11CFA94CF0C13
:107F7000D11C0EC0853739F428D08EE10CD085E9AC
:107F80000AD08FE07ACF813511F488E018D01DD067
:107F900080E101D065CF982F8091C00085FFFCCF94
:107FA0009093C60008958091C00087FFFCCF809118
:107FB000C00084FD01C0A8958091C6000895E0E648
:107FC000F0E098E1908380830895EDDF803219F02E
:107FD00088E0F5DFFFCF84E1DECF1F93182FE3DFCA
:107FE0001150E9F7F2DF1F91089580E0E8DFEE27F6
:047FF000FF270994CA
:027FFE00040479
:00000001FF
